:040000008A11112828
:10000800FE00030E83120313A0000408A1000A08CF
:10001800A2007F08A3008A116B2D8A111328FD0105
:1000280083135430840068308A1192258A11BF30B6
:100038008400D7308A11922583018A1123288316D8
:10004800031386018312031386018A1157258A1127
:10005800C83083120313C9000030CA008A112C2447
:100068008A11403083120313A5008030A6008A113C
:10007800FF248A110D308A117D258A110A308A11D0
:100088007D258A11103083120313D3003930D20032
:100098000D30D100D10B4E28D20B4E28D30B4E2851
:1000A800403083120313A5008030A6008A11FF2474
:1000B8008A110D308A117D258A110A308A117D2511
:1000C8008A11103083120313D3003930D2000D3057
:1000D800D100D10B6D28D20B6D28D30B6D28403081
:1000E80083120313A5008030A6008A11FF248A1109
:1000F8000D308A117D258A110A308A117D258A11D1
:100108008A119A258A118A1189258A11003A0319B8
:100118008728083083120313D1005108831603136C
:10012800BE00BE3083120313D1005108BA00CF308D
:100138008A116F248A11003A031987282B308312F9
:100148000313D1005108A400CF30D2005208A500F3
:10015800A0308A1109238A11A03083120313A50045
:100168000030A6008A11FF248A110D308A117D25DE
:100178008A110A308A117D258A1187288312031370
:1001880060080319CB280130F3007308DC07600806
:100198005E060319E22850305F02031CD5281D3083
:1001A800D6280B30F8000030F9007808F3007308FF
:1001B800DF076008F3007308DE00E6281430F30058
:1001C8007308DF07A0305F02031C0800013003102A
:1001D800D50CD40CFF3E031DEB2805305C02031838
:1001E800D515A030DF02DC01560803195329013068
:1001F800F3007308D7070C305702031C0800550892
:10020800F4005408F30006300310F40CF30CFF3E1E
:10021800031D082973088A113C258A11F5008312E9
:10022800031354083F398A113C258A11F60003301C
:100238000310F60DFF3E031D1C290310760D7504EF
:10024800F7007708FA007D08031D3A297A08F300B9
:10025800730883120313D80004305802031C38298A
:1002680009305802031C3A29D60108007A08F3001D
:100278007D08BF3E84007308831380000130F300BB
:100288007308FD078312031358087D02031C5129C4
:10029800D6010130F3007308D900D70108003830BF
:1002A80054060B3003195506031D0800D601D60A5B
:1002B800D701FD01D9010800831203136703FF3A30
:1002C800043EFB007B0881070B115A0803197E299D
:1002D8006208031D7E295D0803197A290310861D0B
:1002E8000314003003180130E0007E29003086191D
:1002F8000130E00062080319ED290130FB007B089A
:10030800E6076603031DED2963080319BA29640883
:10031800233E84008A1183238A11FB000130FC00EC
:10032800610A98290310FC0DFF3E031D96297C08DD
:100338007B050319A329831203130616A629831222
:10034800031306120130FB007B08E1070630610247
:10035800031CB329E1010130FB007B08E4070830E6
:100368006402031CED29E301E401ED296508640238
:10037800031CC8298A11A1258A11831203135B085B
:10038800FB007B08DA00ED296408BF3E84000130D9
:10039800FB00610AD1290310FB0DFF3E031DCF2985
:1003A8007B08831300050319DD298312031306163E
:1003B800E0298312031306120130FB007B08E107D2
:1003C80006306102031CED29E1010130FB007B08C6
:1003D800E407083066020318E6015A080319080002
:1003E8006208031D08008A11C22008008312031343
:1003F800B401AD1F0C2AAA09AB09AC09AD09AA0AB8
:100408000319AB0A0319AC0A0319AD0AB401B40AFB
:10041800B11F1D2AAE09AF09B009B109AE0A031907
:10042800AF0A0319B00A0319B10A0130B200320841
:10043800B4060030B8000030B7000030B600003015
:10044800B5002D082C042B042A040319722AB301C1
:10045800B30AAD1B3D2A0130B2000310AA0DAB0D43
:10046800AC0DAD0DB20B312A0130B2003208B30722
:100478002D2A0130B2000310B50DB60DB70DB80D19
:10048800B20B3F2A2D083102031D542A2C083002D2
:10049800031D542A2B082F02031D542A2A082E0252
:1004A800031C652A2A08AE022B08031C2B0FAF0277
:1004B8002C08031C2C0FB0022D08031C2D0FB102B1
:1004C800351401300310AD0CAC0CAB0CAA0CFF3E7C
:1004D800031D662A0130B302031D3D2A340803199F
:1004E800802AB509B609B709B809B50A0319B60AC1
:1004F8000319B70A0319B80A3808AD003708AC0061
:100508003608AB003508AA00080083120313C80197
:1005180008304802031808004808BE003E07013E9C
:1005280084008A1183238A11BF008A1183238A11C8
:10053800C0003B0884003F0883138000840A4008F9
:1005480080003A08A7003908A6003B088400000884
:10055800BE00840A0008BF000310BE0DBF0D0310C3
:10056800BE0DBF0D3E08A4003F08A5008A11DC247B
:100578008A11831203132408C0002508C100031040
:10058800C00DC10D0310C00DC10D0310C00DC10D6C
:100598004008C2004108C300C401C5014508AD00B8
:1005A8004408AC004308AB004208AA000030B10080
:1005B800B730B0001B30AF000030AE008A11FA210E
:1005C8008A11831203132B08C7002A08C6000130BA
:1005D80047020030031946020318042B4608BE00E0
:1005E8003D0884003E08831380004808031908006A
:1005F8004808FF3EBE003C0884003E088000080012
:100608000130BE003E08C8078C2A83120313AC00D1
:100618002530A6002608A8000130A407FF302407CB
:1006280084008A1183238A11A6002608A9002908B4
:100638000319742B2530290603192E2B2908A60027
:100648002C0884002608831380000130A6002608A1
:10065800AC07102BA701632B28088400831300081C
:10066800AA000030AB000130A6002608A8072A0817
:100678002B04031D432B5330AA008030AB002B08FA
:10068800FF002A0884008A1179238A11003A031985
:10069800102B2B08FF002A0884008A1179238A115D
:1006A800A6002C0884002608831380000130AA07BE
:1006B8000318AB0A0130A6002608AC07432B01300B
:1006C800A407FF30240784008A1183238A11A90014
:1006D800003A0319742B733A0319302B102B102B83
:1006E8002C088400831380010800FF1B832B8313CD
:1006F8007F1883170008840A0319FF0A08000330CB
:100708008A000408840A8207003401340034023461
:1007180000340434003408340034103400342034F5
:1007280000344034003480340034003401340D3453
:100738000E3413341534163419341A341C34233453
:100748002534263429342A342C34323434342A34A7
:100758002A342A342A342A342A3438342C344C346F
:1007680069346734683474342034703465347234CE
:10077800633465346E3474346134673465343A34C0
:10078800203425347334003450344934433420340D
:10079800523465346334653469347634653472347C
:1007A8002034443465346D346F340A3400342834CA
:1007B8006E3475346C346C3429340034831203136A
:1007C8002408A7002708A6062608A7000330031058
:1007D800A70DFF3E031DEB2B0310270DA8002808CB
:1007E800A6062608A700A8010310A70DA80D031048
:1007F800A70DA80D0310A70DA80D2608A900043001
:100808000310A90CFF3E031D042C2908AA00AB0104
:100818002508AD002408AC002D08AC00AD01260861
:10082800AE00AF012E08AF00AE012C082E04B000B8
:100838002D082F04B1002A083006B2002B08310613
:10084800B30027083206A40028083306A5000800CC
:1008580083160313861506128312031306124A0819
:10086800BA004908B9004E30CB004B08BB005030E5
:10087800CC004C08BC006730CD004D08BD008A1183
:1008880089228A110030831203134F0202300319A0
:100898004E02031C5D2CF030CB004B08831603136B
:1008A8008105831203135008CB004B0883160313EA
:1008B8008104831603138112831203136703FF3A1B
:1008C800023E81000B118B160B170B1F6D2C8B171B
:1008D80008008B13080083120313BE005908031D78
:1008E800772C003008007D08FD3EBB003B08BF00A8
:1008F8003A088400831300083F020318892C3F0834
:10090800BB003A0884003B088000C030BB003B08AD
:10091800A4003A0884000008BC00BD013C08A500FA
:100928003D08A6003E088A111E258A11831203136A
:10093800D9017D08BB003B08B400BF308A11B2243E
:100948008A11B830831203133406F03003193506C0
:10095800031DB02C01300800003008008312031377
:10096800B700FF30B800FF30B9000130B402340AD4
:100978000319D72C3908A5003808A40037088400C3
:1009880083130008B6003608A6008A11E2238A11EC
:10099800831203132508B9002408B8000130B600F3
:1009A8003608B707B92C3908B5003808B40008006C
:1009B80083120313A801A901241CE82C2608A80700
:1009C8000318A90A2708A90701300310A60DA70DC7
:1009D800FF3E031DE92C01300310A50CA40CFF3EBB
:1009E800031DF02C24082504031DE02C2908A5006C
:1009F8002808A4000800831203132608FF0025080E
:100A080084008A1179238A11003A03190800831295
:100A180003132608FF00250884008A1179238A1108
:100A28008A117D258A11013083120313A507031843
:100A3800A60AFF2C83120313AA000130A502003076
:100A4800031CA603A602250A0319260A031908008F
:100A580025082407A7002708840083130008A80096
:100A680025082A07A9002908840028088000212DC4
:100A7800F100F201103072020318552D7208133E6E
:100A880084008A1183238A117106031D4D2D720873
:100A980008000130F0007008F20710307202031CE1
:100AA800422D003008008316031306158612181508
:100AB8004D309900181283120313981783160313E5
:100AC80018139816831203131813181608000B1D11
:100AD800702D8A1160218A11831203132308FF00E5
:100AE80022088A0021088400200E8300FE0E7E0E54
:100AF800090083120313A40083160313981C802D86
:100B08008312031324089900080083120313590859
:100B18000319902D0130080000300800640080019E
:100B2800840A0406031900340406932D8312031360
:100B3800DA01DA0ADB01DB0A080083120313061262
:040B4800E2010800BE
:04400E004AFFFFFF67
:00000001FF
