:040000008A11112828
:10000800FE00030E83120313B2000408B3000A08AB
:10001800B4007F08B5008A1174298A111328831344
:100028004630FD000130FE009E30FF00363084006F
:100038008A11B221C601C701C801C90183018A1109
:100048008C297A30831203134606031D3D2801309C
:10005800F9007908C807C6013C304806031D39284D
:100068000130F9007908C707C8013C304706031971
:10007800C7014908031D5A28051485110511851063
:100088000A30F0000030F1004808F900FA01790858
:10009800F2007A08F3008A110B218A1170088A117C
:1000A800562183120313C901C90A08004903031D15
:1000B800792885148511051105100A30F0000030E3
:1000C800F1004808F900FA017908F2007A08F3000B
:1000D8008A11B2208A1170088A1156210230F9005B
:1000E800790883120313C900080002304906031D6A
:1000F800992805158511851005100A30F000003083
:10010800F1004708F900FA017908F2007A08F300CB
:100118008A110B218A1170088A1156210330F900BF
:10012800790883120313C900080085150511851085
:1001380005100A30F0000030F1004708F900FA0114
:100148007908F2007A08F3008A11B2208A1170083F
:100158008A11562183120313C9010800F601F11F01
:10016800BC28F009F109F00A0319F10AF601F60AA8
:10017800F31FC728F209F309F20A0319F30A013039
:10018800F4007408F606F701F80170087104031901
:10019800FE28F501F50AF11BDD2801300310F00DEA
:1001A800F10DFF3E031DD2280130F4007408F50755
:1001B800CF2801300310F70DF80DFF3E031DDE2890
:1001C80071087302031DEA2870087202031CF328E1
:1001D8007008F2027108031CF303F302771401306C
:1001E8000310F10CF00CFF3E031DF4280130F5025A
:1001F800031DDD28760803190629F709F809F70A07
:100208000319F80A7808F1007708F0000800F601E9
:10021800F31F1529F209F309F20A0319F30AF60183
:10022800F60AF11F1C29F009F109F00A0319F10A6D
:100238007008710403194929F501F50AF11B3029E1
:1002480001300310F00DF10DFF3E031D252901308B
:10025800F4007408F507222971087302031D362972
:1002680070087202031C3E297008F2027108031C10
:10027800F303F30201300310F10CF00CFF3E031DF1
:100288003F290130F502031D302976080319512949
:10029800F209F309F20A0319F30A7308F100720864
:1002A800F000080083120313B000203084003630B9
:1002B800F0000408F1001030F20070088400831385
:1002C8000008F300F00A7108840073088000F10A3E
:1002D800F20B61293008203E8400000986000800DE
:1002E8008B1A0B1D7F290130B1003108C6078A110E
:1002F80025208A110B11831203133508FF003408D7
:100308008A0033088400320E8300FE0E7E0E090038
:10031800831603139B0186018501013083120313A1
:100328008500BF3086008530831603138100E030D6
:100338008B009D293F3406345B344F3466346D346A
:100348007C3407347F34673400340034003400349C
:10035800003400347E088A007F088200AE218A11AA
:100368008000840A04087D0603190034FF0A031973
:04037800FE0AB2299E
:04400E002AFFFCFF8A
:00000001FF
