:040000008A11112828
:10000800FE00030EF0000408F1000A08F200831253
:1000180003137F08F3008A11E62C8A111328F701CD
:10002800F801F90183160313C701C801C901CA0100
:1000380083018A11A82C83120313C3003630BA0037
:100048003A08C0000130B507FF30350784008A112F
:1000580000238A11BA003A08C90049080319A129DE
:1000680025304906031944284908BA004308840082
:100078003A08831380000130BA003A08C3072628DB
:10008800C4014F2844164F28C4176528C030BA0049
:100098003A08C40465280130B507FF3035078400E5
:1000A8008A1100238A11C900003A0319A1296C3A60
:1000B80003194628193A03194A280D3A03194828FA
:1000C8002628441E77284008840083130008C500AA
:1000D800840A0008C600840A0008C700840A0008C9
:1000E800C800043086284008840083130008BA003A
:1000F800840A0008BB003A08C5003B08C600C701CF
:10010800C8010230BA003A08C007F828C901C90A6C
:100118000A304906031901294908BA0001300310B9
:10012800BA0DFF3E031D932803103A0D013E8400CB
:100138008A1100238A11BB008A1100238A11BC008E
:100148008A1100238A11BD008A1100238A11BE007A
:100158003E084802031DBA283D084702031DBA2875
:100168003C084602031DBA283B084502031C012926
:100178000130BA003A08C9078C28C901C90A0830F1
:100188004906031901294908BA0001300310BA0DBC
:10019800FF3E031DCA2803103A0D293E84008A1128
:1001A80000238A11BB008A1100238A11BC008A111E
:1001B80000238A11BD008A1100238A11BE003E085F
:1001C8004802031DF1283D084702031DF1283C0899
:1001D8004602031DF1283B084502031C0129013092
:1001E800BA003A08C907C3284408C039803A031935
:1001F800C128403A03198A2801294908C100C201C7
:10020800C11BC2038C290030B0000030AF000030A1
:10021800AE000A30AD004108BA0001300310BA0D33
:10022800FF3E031D122903103A0D013E84008A1176
:1002380000238A11A0008A1100238A11A1008A11C3
:1002480000238A11A2008A1100238A11A3004808FA
:10025800A7004708A6004608A5004508A4008A117B
:100268006E238A11831203132308B4002208B300F3
:100278002108B2002008B1008A111C248A118312B7
:1002880003132D08303EBB003B0880294108BA0003
:1002980001300310BA0DFF3E031D4D2903103A0D1E
:1002A800293E84008A1100238A11A0008A110023A4
:1002B8008A11A1008A1100238A11A2008A11002341
:1002C8008A11A3004808A7004708A6004608A50009
:1002D8004508A4008A116E238A118312031320088B
:1002E8000F39BB003B08BF003F08493E84008A1114
:1002F80000238A11BA003A08C9004908BA0043081D
:1003080084003A08831380000130BA003A08C30712
:10031800FF30C1070318C20AFF30C207410A031998
:10032800420A031926284408C039803A03194A2981
:10033800403A031907298129812943088400831336
:100348008001080083120313EE006E08EA00EB0137
:10035800EC01ED016D08CD006C08CC006B08CB00FA
:100368006A08CA008A116A248A1183120313690869
:10037800EA00EB01EC01ED016D08CD006C08CC0042
:100388006B08CB006A08CA008A116A248A117708A8
:10039800031DE3297E30831203136E02031C080039
:1003A8009B306E02031808007E306902031C0800A7
:1003B8009B30690203180800F701F70A08000F309C
:1003C800831203136E02031C072A14306E020318EB
:1003D800072A0F306902031C072A14306902031820
:1003E800072A1F307802031808000130EA000310BA
:1003F80083160313C70DC80DC90DCA0D8312031345
:10040800EA0BFB2908000F306E02031C2E2A143059
:100418006E0203182E2A2F306902031C2E2A3B3045
:10042800690203182E2A8316031347141F30780213
:1004380003180800013083120313EA00031083161F
:100448000313C70DC80DC90DCA0D83120313EA0B98
:10045800222A0800F70108007708031D412A8312A1
:100468000313861D412A003083160313CA00003087
:10047800C9000030C8000030C7007708031D662A8D
:1004880000308A11D6248A1183120313EF006F08F3
:1004980083160313A40001308A11D6248A1183120B
:1004A8000313EF006F0883160313A50025088312B2
:1004B8000313EF006F08E9008316031324088A1159
:1004C800A6218A117703031DA12A83120313851518
:1004D800F801962A00308A11D6248A118312031350
:1004E800EF006F0883160313A60001308A11D62483
:1004F8008A1183120313EF006F0883160313A700F2
:10050800270883120313EF006F08E900831603130B
:1005180026088A11A6218A11013083120313EF00DD
:100528006F08F8077703031D9D2A20307802031C03
:100538006E2A203078060319F701831203138511F8
:10054800831603134A08A3004908A2004808A1001B
:060558004708A0000800A6
:1006000003308A000408840A82070034013400346D
:10061000003400340A3400340034003464340034CC
:1006200000340034E8340334003400341034273408
:1006300000340034A0348634013400344034423471
:100640000F34003480349634983400340034E1346C
:10065000F53405340034CA349A343B340134003460
:1006600000340034103400340034003400340134D9
:1006700000340034003410340034003400340034CA
:1006800001340034003400341034003400340034B9
:100690000034013400340034003410343034313448
:1006A00032343334343435343634373438343934FE
:1006B00061346234633464346534663400344834FD
:1006C000653478343A3420343034783425346C341A
:1006D0007834003425346C3475340034003083129F
:1006E0000313AB000030AA000030A9000030A800BE
:1006F00023082204210420040319C52BAC01AC0AF1
:10070000A31B902B0130F4000310A00DA10DA20D2E
:10071000A30DF40B842B0130F4007408AC07802B7C
:100720000130F4000310A80DA90DAA0DAB0DF40BB8
:10073000922B23082702031DA72B22082602031D44
:10074000A72B21082502031DA72B20082402031C28
:10075000B82B2008A4022108031C210FA50222089F
:10076000031C220FA6022308031C230FA702281430
:1007700001300310A30CA20CA10CA00CFF3E031D22
:10078000B92B0130AC02031D902B2B08A3002A08C3
:10079000A2002908A1002808A00008005A308316EA
:1007A0000313AC002C0883120313B5008316031344
:1007B0002B0883120313B900831603132A0883122C
:1007C0000313B80083160313290883120313B70019
:1007D00083160313280883120313B600AD308A1161
:1007E0001F208A1183160313C6014608AD3E8400FC
:1007F0008313000803190D2C981CFC2B4608AD3EF2
:1008000084008313000883120313990001308316B8
:100810000313AC002C08C607F52B981C0D2C0D30CB
:1008200083120313990083160313981C132C0A30A8
:1008300083120313990008008312031330082F0456
:100840002E042D040319612CF601F60AB01B362C78
:100850000130F5000310AD0DAE0DAF0DB00DF50B71
:100860002A2C0130F5007508F607262C30083402D2
:10087000031D442C2F083302031D442C2E08320282
:10088000031D442C2D083102031C542C2D08B102E9
:100890002E08031C2E0FB2022F08031C2F0FB302C9
:1008A0003008031C300FB40201300310B00CAF0C41
:1008B000AE0CAD0CFF3E031D552C0130F602031D9E
:1008C000362C3408B0003308AF003208AE003108CF
:1008D000AD000800653083120313CE004E08B5004A
:1008E0004D08B9004C08B8004B08B7004A08B600DC
:1008F0004F308A111F208A1183120313E801680800
:100900004F3E8400831300080319972C83160313AA
:10091000981C862C8312031368084F3E84008313AF
:10092000000899000130CE004E08E8077F2C83169E
:100930000313981C972C0D30831203139900831610
:100940000313981C9F2C0A3083120313990008008C
:100950008A11C2248A118A11F6248A118A11052566
:100960008A118A1130228A11831603132308AB00DF
:100970002208AA002108A9002008A8008A11CE2375
:100980008A11B12C831603139B0185010830860060
:100990000430831203138500083086008316031386
:1009A00090010F088F3910388F000800F5000030D3
:1009B0008A1112258A11003083120313861901301F
:1009C00075060319DB2C8A11182508008B1A0B1DDC
:1009D000EB2C0B11F7017308FF0072088A007108F5
:1009E0008400700E8300FE0E7E0E09008B168B1E97
:1009F000FB2C8B17FC2C8B130B118312031381011F
:100A0000831603138112811508008316031318152A
:100A100003309900831203139817831603131812D7
:100A200098160800F400740883120313810008006C
:080A3000831203130108080002
:04400E0050FFFFFF61
:00000001FF
