:060000000A128A11122809
:10000800FE00030E83120313CA000408CB000A087B
:10001800CC007F08CD000A128A1181290A128A11A0
:1000280015280A128A11C5250A128A11E3000A1234
:100038008A11C6250A128A11E4000A128A11C725F4
:100048000A128A11E5000A128A11C825E600E7019A
:10005800E801E90183010A128A11402A8312031375
:10006800BE002B30B0003008BD000130AA07FF30B9
:100078002A0784000A128A110A230A128A11B00078
:100088003008BF003F0803197C2925303F060319B3
:1000980059283F08B0003E088400300883138000C8
:1000A8000130B0003008BE073928B501932835164D
:1000B80093283D08840083130008B0003008BC0072
:1000C8000130B0003008BD073C08031D6F284D30D3
:1000D800B0003008BC003C0884000A128A110A23C8
:1000E8000A128A11003A031939283C0884000A12B6
:1000F8008A110A230A128A11B0003E0884003008C7
:1001080080000130B0003008BC070130B000300872
:10011800BE076F28C030B0003008B504AB280130E6
:10012800AA07FF302A0784000A128A110A230A1232
:100138008A11BF00003A03197C296C3A03195B281D
:100148001F3A03195D28063A03198E283928351EE7
:10015800BD283D08840083130008B800840A0008FD
:10016800B900840A0008BA00840A0008BB000430F9
:10017800CC283D08840083130008B000840A0008D6
:10018800B1003008B8003108B900BA01BB0102302B
:10019800B0003008BD07BF01BF0A0A303F06031987
:1001A80011293F08B00001300310B00DFF3E031DB8
:1001B800D8280310300D013E84000A128A110A2340
:1001C8000A128A11B1000A128A110A230A128A1124
:1001D800B2000A128A110A230A128A11B3000A12FB
:1001E8008A110A230A128A11B40034083B02031D3B
:1001F800072933083A02031D072932083902031D6B
:10020800072931083802031C11290130B0003008D1
:10021800BF070A303F06031DD5283F08B600B701BF
:10022800B61BB703FF30B6070318B70AFF30B70786
:10023800360A0319370A031939280030A300003099
:10024800A2000030A1000A30A0003608B00001303A
:100258000310B00DFF3E031D2C290310300D013E85
:1002680084000A128A110A230A128A11F0000A125B
:100278008A110A230A128A11F1000A128A110A2322
:100288000A128A11F2000A128A110A230A128A1122
:10029800F3003B08F7003A08F6003908F50038087B
:1002A800F4000A128A116D230A128A117308831244
:1002B8000313A7007208A6007108A5007008A4001F
:1002C8000A128A11CB230A128A11831203132008F7
:1002D800303EB1003108BF003F08B0003E0884003E
:1002E8003008831380000130B0003008BE0716299B
:1002F8003E0884008313800108008B1A0B1D332AE3
:100308000B110130E7070318E80A0030E80769080D
:100318000319A4291E30F0000030F1000310670D06
:10032800F200680DF3000A128A11DE240A128A11FB
:1003380070087104031DA429103083120313870663
:1003480000308312031368023D3003196702031C4F
:10035800332AE701E801E201E201023062020318F0
:10036800272A3F30C0004008AA006208653E840082
:1003780083130008C1004108AB006208633E840093
:1003880000080A128A11A0240A128A11700883121E
:100398000313C2007108C300C401C5014508F80071
:1003A8004408F7004308F6004208F5000030FC0056
:1003B8000030FB000030FA006430F9000A128A119C
:1003C80019240A128A11750883120313C6007608C5
:1003D800C7007708C8007808C9000A300310C90C9C
:1003E800C80CC70CC60CFF3E031DF2294908AF0014
:1003F8004808AE004708AD004608AC004E300A1267
:100408008A1132200A128A114E30F1000030F200AF
:100418000A128A1141250A128A110A300A128A110F
:10042800BB250A128A110D300A128A11BB250A123D
:100438008A11013083120313C0004008E20702301A
:100448006202031CB5290A300A128A11BB250A1256
:100458008A110D300A128A11BB250A128A118312D9
:1004680003134D08FF004C088A004B0884004A0E0D
:100478008300FE0E7E0E09000A128A1178250A12E0
:100488008A110A128A11A6250A128A110A128A11D9
:1004980064250A128A110A128A1189250A128A11F8
:1004A80083120313071283160313A701A70AA601D1
:1004B80001300A128A115E240A128A110130831649
:1004C80003132102FF3003192002031C6D2A013097
:1004D8006E2A0030A5002508A60027080319A42ABB
:1004E80026080319A42A831203136908031D9F2AE7
:1004F800293083160313A1008030A2000A128A1142
:1005080010250A128A110D300A128A11B1250A1211
:100518008A110A300A128A11B1250A128A110D307D
:100528000A128A11B1250A128A110A300A128A118E
:10053800B1250A128A1183120313E901E90AA72ACD
:100548008312E9010712831603132708031DB12A32
:100558002608031DB12AA701A70A0A128A1198259D
:100568000A128A1183160313A5002508A800280873
:1005780003195C2A31302806031DE02AA701A70ABF
:1005880083120313E901E90A293083160313A10032
:100598008030A2000A128A1110250A128A110D3021
:1005A8000A128A11B1250A128A110A300A128A110E
:1005B800B1250A128A115C2A3030831603132806E3
:1005C800031D5C2AA70183120313E90107125C2AA1
:10060000FF1B0A2B83137F1883170008840A031922
:10061000FF0A080003308A000408840A82070034B5
:1006200001340034003400340A340034003400341F
:100630006434003400340034E834033400340034CB
:100640001034273400340034A034863401340034AC
:10065000403442340F3400348034963498340034BB
:100660000034E134F53405340034CA349A343B3470
:10067000213421342134213421342034473441348D
:100680005334203441344C34413452344D342034CA
:10069000213421342134213421340034253473347D
:1006A0003A34203425346C34753420342F342034DB
:1006B000313430343034003428346E3475346C3492
:1006C0006C34293400344C346934673468347434FD
:1006D000003447346134733400340030FC0000309F
:1006E000FB000030FA000030F90073087204710456
:1006F00070040319C22BFD01FD0AF31B8D2B013081
:10070000F8000310F00DF10DF20DF30DF80B812B35
:100710000130F8007808FD077D2B0130F800031048
:10072000F90DFA0DFB0DFC0DF80B8F2B73087702FA
:10073000031DA42B72087602031DA42B71087502F9
:10074000031DA42B70087402031CB52B7008F4025F
:100750007108031C710FF5027208031C720FF60278
:100760007308031C730FF702791401300310F30CA4
:10077000F20CF10CF00CFF3E031DB62B0130FD0214
:10078000031D8D2B7C08F3007B08F2007A08F10032
:100790007908F000080083120313230822042104BF
:1007A00020040319102CA901A90AA31BE52B013071
:1007B000A8000310A00DA10DA20DA30DA80BD92B0D
:1007C0000130A8002808A907D52B23082702031DFC
:1007D000F32B22082602031DF32B21082502031DFB
:1007E000F32B20082402031C032C2008A402210858
:1007F000031C210FA5022208031C220FA6022308B6
:10080000031C230FA70201300310A30CA20CA10CA0
:10081000A00CFF3E031D042C0130A902031DE52B93
:100820002708A3002608A2002508A1002408A0008C
:100830000800003083120313A3000030A200003030
:10084000A1000030A000751C3B2C79088312031313
:10085000A0077A0803110318013E031DA1077B08B6
:1008600003110318013E031DA2077C08031103189E
:10087000013E031DA3070130FD000310F90DFA0D21
:10088000FB0DFC0DFD0B3D2C01300310F80CF70C9B
:10089000F60CF50CFF3E031D452C78087704760412
:1008A0007504031D232C831203132308F800220868
:1008B000F7002108F6002008F5000800831603134E
:1008C000A40002302402031C6A2C85100510A0012C
:1008D000A10108002408A200A20DA20DA20D8312FE
:1008E00003131F08831603132206C7392206831237
:1008F00003139F007F2C0514892C8514892C8316E3
:1009000003132408003A03197B2C013A03197D2CA8
:10091000892C063083160313A3002F30A200A20BEC
:100920008F2CA30B8F2C942C831203131F151F19CC
:10093000972C1E0883160313A1001E08A0000800B0
:10094000F40002307402031CAC2C831603138510D0
:100950000510F001F10108007408F200F20DF20D2B
:10096000F20D831203131F087206C73972069F0027
:10097000C12C831603130514C92C83160313851485
:10098000C92C7408003A0319B92C013A0319BD2C7B
:10099000C92C0630F3003030F200F20BCD2CF30BF3
:1009A000CD2C0000831203131F151F19D52C1E0810
:1009B000F100831603131E08F0000800700871048C
:1009C00003190B2DF501F50AF11BF22C0130031070
:1009D000F00DF10DFF3E031DE72C0130F40074080B
:1009E000F507E42C71087302031DF82C70087202DD
:1009F000031C002D7008F2027108031CF303F302BC
:100A000001300310F10CF00CFF3E031D012D0130ED
:100A1000F502031DF22C7308F1007208F0000800C3
:100A200083160313220883120313FF008316031394
:100A300021088400831203130A128A1100230A1268
:100A40008A11003A0319080083160313220883123F
:100A50000313FF008316031321088400831203137A
:100A60000A128A1100230A128A110A128A11B12568
:100A70000A128A11013083160313A1070318A20A70
:100A8000102D720883120313FF00710884000A12EC
:100A90008A1100230A128A11003A03190800720809
:100AA00083120313FF00710884000A128A110023C5
:100AB0000A128A110A128A11BB250A128A11013000
:100AC000F1070318F20A412D831603138717071342
:100AD00018153330990018128312031398178316D0
:100AE000031318139816831203131813181608000B
:100AF000831603138701860185018312031387017F
:100B0000860185010B170B1F872D8B1708008B1390
:100B10000800831203139F171F13831603139F11DB
:100B20001F159F101F109F17831203131F14080017
:100B3000831203138C1A9E2D00300800981CA42DDC
:100B400018121816003008001A0808000B118B162E
:100B500083160313811281110108F83906388100C8
:100B6000080083160313A000981CB42D20088312DC
:100B7000031399000800F00083160313981CBC2D82
:100B800070088312031399000800003401345434B0
:020B90005A34D5
:02400E007AFF37
:00000001FF
