:040000008A11112828
:10000800FE00030EF0000408F1000A08F200831253
:1000180003137F08F3008A110E2A8A111328F801A6
:10002800F901B201B301B401B50183018A111C2899
:10003800831603139B018501083086000430831260
:1000480003138500083086008A11DC218A118A1181
:10005800B9218A11003083120313B0000230B100B5
:100068004A28051503303102CE300319300203182F
:100078004A283230B0070318B10A0030B1073108F6
:10008800F5003008F4008A11ED218A118A11AC209C
:100098008A11831203132308AF002208AE00210837
:1000A800AD002008AC00213084008A116F218A112C
:1000B800A8008A116F218A11A9008A116F218A115B
:1000C800AA008A116F218A11AB002F082B06031D85
:1000D80077282E082A06031D77282D082906031DD0
:1000E80077282C08280603193528253084008A111A
:1000F8006F218A1183120313A8008A116F218A11B4
:10010800A9008A116F218A11AA008A116F218A1108
:10011800AB002F082B06031D9B282E082A06031D5B
:100128009B282D082906031D9B282C082806031D3B
:100138004A28051100303102323003193002031CFD
:100148004A283230B0020030031CB103B102432800
:100158007808031DBB2883120313861DBB280030B3
:10016800B5000030B4000030B3000030B2007808A9
:10017800031DD82800308A11FE218A11F70077085C
:1001880083120313A40001308A11FE218A11F7009B
:10019800770883120313A5002508F7007708F400F1
:1001A80024088A1115218A117803031D092983124D
:1001B80003138515F901FE2800308A11FE218A11E2
:1001C800F700770883120313A60001308A11FE2175
:1001D8008A11F700770883120313A7002708F7008E
:1001E8007708F40026088A1115218A110130F700D2
:1001F8007708F9077803031D052920307902031CC5
:10020800E028203079060319F801831203138511B9
:100218003508A3003408A2003308A1003208A00062
:100228000800F6007808031D2C29BE307602031C4E
:100238000800E730760203180800BE307402031C79
:100248000800E730740203180800F801F80A0800EB
:1002580014307602031C4C292430760203184C29EA
:1002680014307402031C4C292430740203184C29DE
:100278001F307902031808000130F50003108312BB
:100288000313B20DB30DB40DB50DF50B42290800DB
:1002980014307602031C6D292430760203186D2968
:1002A80046307402031C6D295B30740203186D29F3
:1002B8008312031332141F30790203180800013027
:1002C800F5000310B20DB30DB40DB50DF50B65298E
:1002D8000800F801080001308A000408840A82072F
:1002E8000034013400340034003410340034003455
:1002F8000034003401340034003400341034003445
:100308000034003400340134003400340034103434
:100318000034003400340034013400340034003434
:100328001034F9340634E034E03479348634E03477
:10033800E0343034313432343334343435343634D0
:10034800373438343934613462346334643465346E
:10035800663400344834653478343A3420343034E0
:10036800783425346C3478340034FF308A112622EE
:100378008A110030F4000230F5008A11ED218A114B
:10038800831203131214121CCD298312031392141F
:10039800D02983120313921012151715171DD82987
:1003A800831203139715080083120313971108008B
:1003B8008B168B1EE1298B17E2298B130B118312E5
:1003C8000313810183160313811281118A112C22D0
:1003D800080083120313171697167508F700740898
:1003E800F6000310F70CF60C0310F70CF60C760861
:1003F80095000800F50000308A111E228A1100308D
:10040800831203138619013075060319032A8A110A
:10041800322208008B1A0B1D132A0B11F8017308DE
:10042800FF0072088A0071088400700E8300FE0EB7
:100438007E0E0900F40074088312031381008A11E8
:100448002C220800F4007408831603139200080095
:100458008316031301158110011408008312031376
:04046800010808007F
:04400E002AFFFFFF87
:00000001FF
