:060000000A128A11122809
:10000800FE00030E83120313A0000408A1000A08CF
:10001800A2007F08A3000A128A156B2F0A128A1100
:100028001528FD0183120313DA01DB01DC01DD0170
:10003800DE01DF01E0018313A0308400DC300A1206
:100048008A15462783010A128A116029831203132D
:10005800BA00BF01FF30BC00FF30BD00AC30B500B6
:100068003508BE003408033EB5003508B90016301F
:100078003402031808000A128A11F9270A128A1191
:1000880083160313A501831203133D08A5003C083A
:10009800A4003908B5003508A6000A128A112527D8
:1000A8000A128A11831203132508BD002408BC0014
:1000B8003908B50004300310B50CFF3E031D5F2856
:1000C80035083B3E84000A128A1178260A128A11E2
:1000D800B6003F083E07B700370884003608831388
:1000E80080000130B5003508BF0739080F393B3E9D
:1000F80084000A128A1178260A128A11B5003F086C
:100108003E07B60036088400350880000130B50087
:100118003508BF07BB0134083B020318EC283D082B
:10012800A5003C08A4003B083A07B5003508840040
:100138000008B6003608A6000A128A1125270A12F6
:100148008A11831203132508BD002408BC003B084C
:100158003A07B5003508840083130008B600043058
:100168000310B60CFF3E031DB42836083B3E84003E
:100178000A128A1178260A128A11B7003F083E0728
:10018800B80038088400370880000130B500350809
:10019800BF073B083A07B5003508840000080F3947
:1001A8003B3E84000A128A1178260A128A11B60088
:1001B8003F083E07B7003708840036088000013042
:1001C800B5003508BF070130B5003508BB078F28D3
:1001D800BC09BD093D08B6003C08B5000430031051
:1001E800B60CB50CFF3E031DF32835080F393B3E0E
:1001F80084000A128A1178260A128A11B7003F0869
:100208003E07B80038088400370880000130B50080
:100218003508BF073C080F393B3E84000A128A1193
:1002280078260A128A11B5003F083E07B60036083C
:100238008400350880000130B5003508BF073D0847
:10024800B6003C08B500360E0F39B500B6013508C2
:100258000F393B3E84000A128A1178260A128A1145
:10026800B7003F083E07B800380884003708800008
:100278000130B5003508BF073D080F393B3E840003
:100288000A128A1178260A128A11B5003F083E0719
:10029800B60036088400350880000130B5003508FE
:1002A800BF073F08083EB500350883160313AB00A7
:1002B8000A128A154E2708000A128A155C270A12A4
:1002C8008A11C83083120313C9000030CA000A1209
:1002D8008A116F270A128A1100300A128A11B4276C
:1002E8000A128A11831203132408D2002508D300A6
:1002F800D401D5015508AC005408AB005308AA0036
:100308005208A9000030B0000030AF000030AE0045
:100318006430AD000A128A15BF270A128A118312A7
:1003280003132908D6002A08D7002B08D8002C0860
:10033800D9000A300310D90CD80CD70CD60CFF3EC4
:10034800031D9E29590883160313E600831203131D
:10035800580883160313E5008312031357088316FE
:100368000313E40083120313560883160313E300F0
:1003780001300A128A11B4270A128A118312031350
:100388002408D2002508D300D401D5015508AC00B3
:100398005408AB005308AA005208A9000030B00066
:1003A8000030AF000030AE006430AD000A128A158C
:1003B800BF270A128A11831203132908D6002A08B4
:1003C800D7002B08D8002C08D9000A300310D90C04
:1003D800D80CD70CD60CFF3E031DEA295908831602
:1003E8000313EA0083120313580883160313E90062
:1003F80083120313570883160313E80083120313A9
:10040800560883160313E700533083120313D200F0
:100418005208BC000030BD00BE00831603136608F6
:1004280083120313C2008316031365088312031390
:10043800C10083160313640883120313C0008316D4
:100448000313630883120313BF00DC300A128A11F6
:100458008A220A128A11063083120313D200520824
:10046800B400DC300A128A112A200A128A111A30C2
:1004780083120313D300F730D200D20B412AD30BD7
:10048800412A462A533083120313D2005208BC0073
:100498000130BD000030BE00831603136A088312C2
:1004A8000313C20083160313690883120313C100E0
:1004B80083160313680883120313C00083160313FB
:1004C800670883120313BF00DC300A128A118A22DC
:1004D8000A128A11063083120313D2005208B4009C
:1004E800DC300A128A112A200A128A111530831266
:1004F8000313D4004B30D300BD30D200D20B822A74
:10050800D30B822AD40B822A892A702983120313D7
:10051800D0003D30C3004308CF000130BC07FF3096
:100528003C0784000A128A1178260A128A11C3002D
:100538004308D10051080319A02B2530510603198F
:10054800B12A5108C300500884004308831380006F
:100558000130C3004308D007912AC801BA2A4816B7
:10056800BA2AC030C3004308C804CF2A0130BC07E8
:10057800FF303C0784000A128A1178260A128A1171
:10058800D100003A0319A02B6C3A0319B32A193A7F
:100598000319B52A912A481EE12A4F0884008313BB
:1005A8000008CB00840A0008CC00840A0008CD00AB
:1005B800840A0008CE000430F02A4F088400831310
:1005C8000008C300840A0008C4004308CB0044089C
:1005D800CC00CD01CE010230C3004308CF07D101C2
:1005E800D10A0A3051060319352B5108C3000130CE
:1005F8000310C30DFF3E031DFC2A0310430D013EEB
:1006080084000A128A1178260A128A11C4000A1272
:100618008A1178260A128A11C5000A128A117826C8
:100628000A128A11C6000A128A1178260A128A1139
:10063800C70047084E02031D2B2B46084D02031D19
:100648002B2B45084C02031D2B2B44084B02031C83
:10065800352B0130C3004308D1070A305106031D6A
:10066800F92A5108C900CA01C91BCA03FF30C907C2
:100678000318CA0AFF30CA07490A03194A0A0319A4
:10068800912A0030B5000030B4000030B3000A30C1
:10069800B2004908C30001300310C30DFF3E031D1B
:1006A800502B0310430D013E84000A128A1178264C
:1006B8000A128A11A4000A128A1178260A128A11CB
:1006C800A5000A128A1178260A128A11A6000A12AF
:1006D8008A1178260A128A11A7004E08AB004D0825
:1006E800AA004C08A9004B08A8000A128A1118266B
:1006F8000A128A11831203132708B9002608B800C2
:100708002508B7002408B6000A128A11D7260A124B
:100718008A11831203133208303EC4004408D10002
:100728005108C30050088400430883138000013037
:10073800C3004308D0073A2B500884008313800174
:100748000800831203135B080319B02B0130F30070
:10075800730883160313A70783125B088316031312
:1007680028060319CE2B50302902031CBD2B1D303F
:10077800BE2B0B30F8000030F9007808F30073083E
:10078800A907831203135B08F30073088316031386
:10079800A800D22B1430F3007308A907A03029024F
:1007A800031C080001300310A10CA00CFF3E031D20
:1007B800D72B053027020318A115A030A902A701DD
:1007C80022080319492C0130F3007308A3070C30E1
:1007D8002302031C08002108F4002008F300063057
:1007E8000310F40CF30CFF3E031DF42B73080A12DC
:1007F8008A157F270A128A11F50083160313200829
:100808003F390A128A157F270A128A11F600033027
:100818000310F60DFF3E031D0C2C0310760D750416
:10082800F7007708FA007D08031D2C2C7A08F300DE
:10083800730883120313DA0004305A02031C282CAD
:1008480019305A02031C2C2C83160313A20108002A
:100858007A08F3007D08AC3E840073088313800097
:100868000130F3007308FD07831203135A087D0251
:10087800031C452C83160313A2010130F3007308EF
:10088800A40083160313A3010800383020060B3098
:1008980003192106031D0800A201A20AA301FD01F4
:1008A800A4010800831203136003FF3A043EFB000F
:1008B8007B0881070B1183160313250803196D2C78
:1008C800831203135D08031D6D2C00308618013058
:1008D800DB0083125D080319EE2C0130FB007B0856
:1008E800DF075F03031DEE2C831603132A08031981
:1008F800B42C831203135E084B3E84000A128A113B
:1009080078260A128A11FB000130FC005C0A8E2C42
:100918000310FC0DFF3E031D8C2C7C087B0503197E
:10092800992C8312031306149C2C831203130610AC
:100938000130FB007B08DC0706305C02031CA92C95
:10094800DC010130FB007B08DE0708305E02031C77
:10095800EE2C83160313AA0183120313DE01EE2C77
:10096800831603132B08831203135E02031CC82C7F
:100978000A128A1541270A128A11831603132608B8
:10098800FB007B08A500EE2C83125E08AC3E8400B9
:100998000130FB005C0AD22C0310FB0DFF3E031D47
:1009A800D02C7B08831300050319DE2C8312031354
:1009B8000614E12C8312031306100130FB007B0898
:1009C800DC0706305C02031CEE2CDC010130FB0066
:1009D8007B08DE07083083125F020318DF018316E5
:1009E8000313250803190800831203135D08031D68
:1009F80008000A128A11A523080083120313B40100
:100A0800AD1F132DAA09AB09AC09AD09AA0A031930
:100A1800AB0A0319AC0A0319AD0AB401B40AB11F31
:100A2800242DAE09AF09B009B109AE0A0319AF0AFE
:100A38000319B00A0319B10A0130B2003208B4062A
:100A48000030B8000030B7000030B6000030B50004
:100A58002D082C042B042A040319792DB301B30A99
:100A6800AD1B442D0130B2000310AA0DAB0DAC0D27
:100A7800AD0DB20B382D0130B2003208B307342D5A
:100A88000130B2000310B50DB60DB70DB80DB20B9D
:100A9800462D2D083102031D5B2D2C083002031D45
:100AA8005B2D2B082F02031D5B2D2A082E02031C29
:100AB8006C2D2A08AE022B08031C2B0FAF022C0842
:100AC800031C2C0FB0022D08031C2D0FB102351486
:100AD80001300310AD0CAC0CAB0CAA0CFF3E031D8F
:100AE8006D2D0130B302031D442D34080319872DE1
:100AF800B509B609B709B809B50A0319B60A031939
:100B0800B70A0319B80A3808AD003708AC00360828
:100B1800AB003508AA00080083120313C801083087
:100B28004802031808004808BE003E07293E840012
:100B38000A128A1178260A128A11BF000A128A112B
:100B480078260A128A11C0003B0884003F088313E4
:100B58008000840A400880003A08A7003908A600E7
:100B68003B0884000008BE00840A0008BF00031088
:100B7800BE0DBF0D0310BE0DBF0D3E08A4003F08FB
:100B8800A5000A128A159C270A128A1183120313D8
:100B98002408C0002508C1000310C00DC10D0310B2
:100BA800C00DC10D0310C00DC10D4008C2004108A1
:100BB800C300C401C5014508AD004408AC004308A2
:100BC800AB004208AA000030B1007A30B000123001
:100BD800AF000030AE000A128A1101250A128A11EC
:100BE800831203132B08C7002A08C60001304702E6
:100BF8000030031946020318132E4608BE003D08AC
:100C080084003E0883138000480803190800480838
:100C1800FF3EBE003C0884003E088000080001300A
:100C2800BE003E08C807932D003083120313B0009E
:100C38000030AF000030AE000030AD0027082604B9
:100C48002504240403196F2EB101B10AA71B3A2EFB
:100C58000130AC000310A40DA50DA60DA70DAC0B1B
:100C68002E2E0130AC002C08B1072A2E0130AC0022
:100C78000310AD0DAE0DAF0DB00DAC0B3C2E27081B
:100C88002B02031D512E26082A02031D512E25086A
:100C98002902031D512E24082802031C622E240851
:100CA800A8022508031C250FA9022608031C260FE5
:100CB800AA022708031C270FAB022D1401300310CA
:100CC800A70CA60CA50CA40CFF3E031D632E013037
:100CD800B102031D3A2E3008A7002F08A6002E08DF
:100CE800A5002D08A400080006308A000408840A1C
:100CF8008207003401340034003400340A340034EC
:100D0800003400346434003400340034E8340334EC
:100D1800003400341034273400340034A0348634CE
:100D280001340034403442340F3400348034963473
:100D3800983400340034E134F53405340034CA34CE
:100D48009A343B340134003402340034043400341F
:100D58000834003410340034203400344034003473
:100D680080340034003401340D340E341334153417
:100D7800163419341A341C342334253426342934CF
:100D88002A342C34323434342A342A342A342A3457
:100D98002A342A3438342C34253475342C34253408
:100DA8006C34753400348312031335083404330467
:100DB800320403191C2FBB01BB0AB51BF12E0130ED
:100DC800BA000310B20DB30DB40DB50DBA0BE52E74
:100DD8000130BA003A08BB07E12E35083902031D75
:100DE800FF2E34083802031DFF2E33083702031D77
:100DF800FF2E32083602031C0F2F3208B6023308C2
:100E0800031C330FB7023408031C340FB80235082B
:100E1800031C350FB90201300310B50CB40CB30C28
:100E2800B20CFF3E031D102F0130BB02031DF12E33
:100E38003908B5003808B4003708B3003608B200DE
:100E48000800831203132408A7002708A60626080B
:100E5800A70003300310A70DFF3E031D2E2F03101C
:100E6800270DA8002808A6062608A700A801031031
:100E7800A70DA80D0310A70DA80D0310A70DA80D09
:100E88002608A90004300310A90CFF3E031D472FB4
:100E98002908AA00AB012508AD002408AC002D08DC
:100EA800AC00AD012608AE00AF012E08AF00AE01C0
:100EB8002C082E04B0002D082F04B1002A08300693
:100EC800B2002B083106B30027083206A400280810
:100ED8003306A50008008316031386140610831230
:100EE800031306104A08BA004908B9004F30CB006E
:100EF8004B08BB004E30CC004C08BC006030CD0025
:100F08004D08BD000A128A1190250A128A11003074
:100F1800831203135002023003194F02031CA22F3D
:100F2800F030CB004B08831603138105831203139B
:100F38004E08CB004B088316031381048316031352
:100F48008112831203136003FF3A023E81000B11E2
:100F58008B160B170B1FB22F8B1708008B1308006B
:100F680083120313A80002302802031CC42F83161F
:100F780003138510051083120313A401A5010800AB
:100F88002808A600A60DA60DA60D1F082606C73917
:100F980026069F00D72F831603130514E02F831608
:100FA80003138514E02F83122808003A0319CF2F62
:100FB800013A0319D32FE02F063083120313A70039
:100FC8002F30A600A60BE62FA70BE62FEB2F8312D8
:100FD80003131F151F19EE2F1E08A50083160313F0
:100FE8001E0883120313A4000800831203135D086C
:060FF80003190800F92FA7
:101E8200831203130610DD01080064008001840A36
:101E92000406031900340406472F83120313DE01DC
:101EA200DC01DF0183160313AA01AA0A83120313BA
:101EB200DD01DD0A0800831203139F171F13831627
:101EC20003139F111F159F101F109F1783120313D7
:101ED2001F1408000B1D722F0A128A1156240A12AF
:101EE2008A15831203132308FF0022088A0021089F
:101EF2008400200E8300FE0E7E0E0900F100F20126
:101F02001030720203189A2F72083B3E84000A12A4
:101F12008A1178260A128A157106031D922F7208F9
:101F220008000130F0007008F20710307202031C42
:101F3200852F0030080083120313A801A901241C75
:101F4200A82F2608A8070318A90A2708A9070130FD
:101F52000310A60DA70DFF3E031DA92F013003108C
:101F6200A50CA40CFF3E031DB02F24082504031D5D
:101F7200A02F2908A5002808A40008000030831219
:101F82000313B5000030B4000030B3000030B200DB
:101F9200291CDF2F2D08B2072E0803110318013E5A
:101FA200031DB3072F0803110318013E031DB407D5
:101FB200300803110318013E031DB5070130B100BB
:101FC2000310AD0DAE0DAF0DB00DB10BE12F013011
:101FD2000310AC0CAB0CAA0CA90CFF3E031DE92F9D
:101FE2002C082B042A042904031DC92F3508AC0030
:0E1FF2003408AB003308AA003208A90008002A
:02400E007AFF37
:00000001FF
