:020000000F28C7
:10000800DE00030E8312AB000408AC000A08AD0042
:100018005F08AE00C62B10288312B601B701B801DD
:10002800B90183015728292804308312B2002F0808
:10003800840032088313800008000130B2002F08C2
:100048008400320883138000080083123108DF001F
:10005800300884008520003A03191828043A031947
:10006800212836280800492804308312A3002008D4
:10007800840023088313800008000130A3002008AF
:100088008400230883138000080083122208DF00FD
:10009800210884008520003A03193828043A0319F6
:1000A80041285628080083161F149F101F119F11FE
:1000B8000130850083128501EF23A3203930AE205B
:1000C80039308312B5003508AF000030B000B100F8
:1000D800390800216E280D308312A300FB30A200DE
:1000E800A20B7428A30B7428792883129F149F18D5
:1000F8007B281E08A200A3012208A0002308A10053
:100108000800DF1B8F2883135F1883170008840AF1
:100118000319DF0A08005F087F398A000408840A87
:100128000319DF0A82009A299D29A129A829B32940
:10013800B329B329B329B329B329AA29B029831626
:100148001F179F121F1283129F131F139F111F1136
:100158001F1408008312B0000630AF003008840076
:100168002F0883138000080005308312B2002F087F
:100178008400320883138000080005308312A3002E
:100188002008840023088313800008008312A0003D
:1001980020088100831601158114011408008312B8
:0E01A800B6010030CA208312B701B70A080062
:10020000DF0001308A005F0882070529152AD229FC
:10021000DE2A5A2B1728B828DF0001308A005F0831
:10022000820711299B2A582A1C2B902B3728C1287A
:100230006F20003083122102F63003192002031CC4
:1002400023290C3008006F2083122008A400240802
:10025000A5006F20003083122102F630031920021E
:10026000031C29290E3025020318382908300800FC
:100270002730250203183E29073008003E302502AA
:1002800003184429093008005330250203184A296D
:100290000530080068302502031850290430080092
:1002A0007C302502031856290630080090302502BC
:1002B00003185C2901300800A430250203186229C4
:1002C0000B300800BA3025020318682902300800F4
:1002D000CE30250203186E2903300800E2302502D3
:1002E00003187429003008000A3008008312A700A0
:1002F0002D303602031C9029B701B6010730A60045
:100300002608A8002708A6002608A0002830A1007B
:100310000030A20027088400831300080C21080085
:1003200018218312A6002608A9000C3029060319FB
:100330000800B829A801D320C329A801A80AD320FE
:10034000C32902308312A6002608A800D320C3299F
:100350000330B1290430A6002608A800D320C32901
:1003600005308312B4290630A6002608A800C32948
:10037000290884000C3004020318B32900308A00D5
:1003800097300407820083122708A6002608A000E1
:100390002830A1000030A200270884008313000841
:1003A0000C210800042A05308312B2002F088400B3
:1003B000320883138000080085160630B40013301D
:1003C000B300AD30B200B20BE329B30BE329B40B99
:1003D000E329EA29831285120530B2002F08840030
:1003E00032088313800008000130B2002F08840017
:1003F00032088313800008000530B2002F08840003
:10040000320883138000080083123108DF003008AF
:1004100084008520033A0319DC29073A0319F429DB
:10042000033A0319D329FC290800472A053083120F
:10043000B2002F08840032088313800008000516DC
:100440000630B4001330B300AD30B200B20B262A30
:10045000B30B262AB40B262A2D2A83120512053047
:10046000B2002F0884003208831380000800043093
:10047000B2002F0884003208831380000800053082
:10048000B2002F0884003208831380000800831212
:100490003108DF00300884008520003A0319372A2C
:1004A000053A03191F2A023A0319162A3F2A08009F
:1004B0008A2A05308312A3002008840023088313AE
:1004C0008000080085160630A5001330A400AD306A
:1004D000A300A30B692AA40B692AA50B692A702A19
:1004E000831285120530A30020088400230883139B
:1004F000800008000130A300200884002308831333
:10050000800008000530A30020088400230883131E
:100510008000080083122208DF0021088400852063
:10052000033A0319622A073A03197A2A033A03198C
:10053000592A822A0800CD2A05308312A3002008F8
:100540008400230883138000080005160630A500E8
:100550001330A400AD30A300A30BAC2AA40BAC2A2B
:10056000A50BAC2AB32A831205120530A30020087C
:10057000840023088313800008000430A3002008AF
:10058000840023088313800008000530A30020089E
:100590008400230883138000080083122208DF00F0
:1005A000210884008520003A0319BD2A053A031961
:1005B000A52A023A03199C2AC52A0800082B0530EF
:1005C0008312B2002F0884003208831380000800D1
:1005D0000230B2002F088400320883138000080024
:1005E0000430B2002F088400320883138000080012
:1005F0000130B2002F088400320883138000080005
:100600000530B2002F0884003208831380000800F0
:1006100083123108DF00300884008520003A031976
:10062000F02A023A0319E82A063A0319F82A033A8B
:100630000319DF2A002B0800462B05308312A30084
:100640002008840023088313800008000230A300E0
:100650002008840023088313800008000430A300CE
:100660002008840023088313800008000130A300C1
:100670002008840023088313800008000530A300AD
:1006800020088400230883138000080083122208B6
:10069000DF00210884008520003A03192E2B023A3E
:1006A0000319262B063A0319362B033A03191D2B7F
:1006B0003E2B08007C2B05308312B2002F088400EB
:1006C00032088313800008000330B2002F08840032
:1006D00032088313800008000130B2002F08840024
:1006E00032088313800008000530B2002F08840010
:1006F000320883138000080083123108DF003008BD
:1007000084008520003A03198F2B013A0319642BCA
:10071000053A03196C2B033A03195B2B742B080061
:10072000B22B05308312A300200884002308831312
:10073000800008000330A3002008840023088313EE
:10074000800008000130A3002008840023088313E0
:10075000800008000530A3002008840023088313CC
:100760008000080083122208DF0021088400852011
:10077000003A0319C52B013A03199A2B053A0319BC
:10078000A22B033A0319912BAA2B08008B1A0B1DDD
:10079000E32B0B110130AA002A08B80703303802F6
:1007A0000318D42B8510DA2B06303802031CDA2B01
:1007B000B801851437080319E12B0130AA002A0873
:1007C000B6073930762183122E08DF002D088A0003
:1007D0002C0884002B0E8300DE0E5E0E09000B1128
:1007E0008B168B1EF52B8B17F62B8B138316811212
:0A07F00081110115811401140800A5
:02400E009431EB
:00000001FF
