:060000000A128A11122809
:10000800FE00030E83120313A0000408A1000A08CF
:10001800A2007F08A3000A128A11462E0A128A112A
:100028001528FD0183135430840067300A128A11A1
:1000380073260A128A11A0308400D0300A128A115D
:10004800732683010A128A117E2C83120313B900C6
:10005800BF01FF30BC00FF30BD00A030B50035083F
:10006800BE003408033EB5003508BA001630340225
:10007800031808000A128A117B260A128A118312B1
:100088000313DA013D08A5003C08A4003A08B500AE
:100098003508A6000A128A11C8240A128A11831286
:1000A80003132508BD002408BC003A08B500043035
:1000B8000310B50CFF3E031D5C283508133E840071
:1000C8000A128A1195250A128A11B6003F083E07BE
:1000D800B700370884003608831380000130B50064
:1000E8003508BF073A080F39133E84000A128A11EF
:1000F80095250A128A11B5003F083E07B600360852
:100108008400350880000130B5003508BF07BB0101
:1001180034083B020318E9283D08A5003C08A40060
:100128003B083907B500350884000008B6003608D2
:10013800A6000A128A11C8240A128A11831203130C
:100148002508BD002408BC003B083907B500350860
:10015800840083130008B60004300310B60CFF3E79
:10016800031DB1283608133E84000A128A1195250A
:100178000A128A11B7003F083E07B8003808840001
:10018800370880000130B5003508BF073B0839073C
:10019800B5003508840000080F39133E84000A12A0
:1001A8008A1195250A128A11B6003F083E07B70042
:1001B80037088400360880000130B5003508BF07CD
:1001C8000130B5003508BB078C28BC09BD093D08BE
:1001D800B6003C08B50004300310B60CB50CFF3E61
:1001E800031DF02835080F39133E84000A128A11BE
:1001F80095250A128A11B7003F083E07B80038084B
:100208008400370880000130B5003508BF073C0876
:100218000F39133E84000A128A1195250A128A1191
:10022800B5003F083E07B600360884003508800050
:100238000130B5003508BF073D08B6003C08B500D9
:10024800360E0F39B500B60135080F39133E840054
:100258000A128A1195250A128A11B7003F083E072B
:10026800B80038088400370880000130B500350828
:10027800BF073D080F39133E84000A128A119525DD
:100288000A128A11B5003F083E07B60036088400F6
:10029800350880000130B5003508BF073F08083E23
:1002A800B5003508E4000A128A116926080083128D
:1002B8000313BD003330B5003508B8000130B2076C
:1002C800FF30320784000A128A1195250A128A1112
:1002D800B5003508BE003E0803192C2A25303E0615
:1002E800031982293E08B5003D08840035088313A8
:1002F80080000130B5003508BD076229B901013019
:10030800B207FF30320784000A128A1195250A12B3
:100318008A11BE00003A03192C2A643A0319982955
:100328000D3A0319982962293808840083130008B4
:10033800BB00840A0008BC000230B5003508B807C5
:10034800BC1FAF290330B5003508B904BB09BC0987
:10035800BB0A0319BC0ABE01BE0A05303E060319D2
:10036800D6293E08B5003507233E84000A128A11B3
:1003780095250A128A11B6000A128A1195250A12C1
:100388008A11B70037083C02031DCC2936083B0206
:10039800031CD6290130B5003508BE0705303E06D6
:1003A800031DB529390803390319E5292D30B5008E
:1003B8003D0884003508831380000130B5003508F6
:1003C800BD073E08B5003508BA00FF30B50035084E
:1003D800BA073A0A031962290A30AC000030AD00A6
:1003E8003A08B5003507233E84000A128A1195257C
:1003F8000A128A11A4000A128A1195250A128A1172
:10040800A5003C08A7003B08A6000A128A11572538
:100418000A128A11831203132508AF002408AE00BC
:100428000A128A11D2250A128A11831203132C0880
:10043800303EB6003608BE003E08B5003D088400D0
:100448003508831380000130B5003508BD07E92958
:100458003D088400831380010800831203135F089A
:1004680003193A2A0130F3007308DC075F085D06B8
:100478000319512A50305E02031C442A1D30452AB4
:100488000B30F8000030F9007808F3007308DE0735
:100498005F08F3007308DD00552A1430F300730871
:1004A800DE07A0305E02031C080001300310D50CE3
:1004B800D40CFF3E031D5A2A05305C020318D515DB
:1004C800A030DE02DC0156080319C62A0130F30009
:1004D8007308D7070C305702031C08005508F400AE
:1004E8005408F30006300310F40CF30CFF3E031D10
:1004F800772A73080A128A1129260A128A11F50026
:100508008312031354083F390A128A1129260A1242
:100518008A11F60003300310F60DFF3E031D8F2AE3
:100528000310760D7504F7007708FA007D08031D9F
:10053800AD2A7A08F300730883120313D800043035
:100548005802031CAB2A19305802031CAD2AD601E5
:1005580008007A08F3007D08A03E8400730883131E
:1005680080000130F3007308FD0783120313580855
:100578007D02031CC42AD6010130F3007308D90098
:10058800D7010800383054060B3003195506031DEF
:100598000800D601D60AD701FD01D9010800831247
:1005A80003136603FF3A043EFB007B0881070B1127
:1005B8005A080319E62A6108031DE62A003086193D
:1005C8000130DF0061080319592B0130FB007B085B
:1005D800E5076503031D592B62080319242B6308DB
:1005E8002D3E84000A128A1195250A128A11FB00F1
:1005F8000130FC00600A022B0310FC0DFF3E031DB6
:10060800002B7C087B0503190D2B83120313061698
:10061800102B8312031306120130FB007B08E0073E
:1006280006306002031C1D2BE0010130FB007B0833
:10063800E30708306302031C592BE201E301592B3D
:1006480064086302031C342B0A128A1181260A12D9
:100658008A11831203135B08FB007B08DA00592B0D
:100668006308A03E84000130FB00600A3D2B0310A4
:10067800FB0DFF3E031D3B2B7B088313000503196D
:10068800492B8312031306164C2B831203130612ED
:100698000130FB007B08E00706306002031C592B81
:1006A800E0010130FB007B08E3070830650203180E
:1006B800E5015A08031908006108031D08000A1219
:1006C8008A113122080083120313B401AD1F792B5C
:1006D800AA09AB09AC09AD09AA0A0319AB0A03199F
:1006E800AC0A0319AD0AB401B40AB11F8A2BAE09CA
:1006F800AF09B009B109AE0A0319AF0A0319B00A64
:100708000319B10A0130B2003208B4060030B8004B
:100718000030B7000030B6000030B5002D082C04BA
:100728002B042A040319DF2BB301B30AAD1BAA2B30
:100738000130B2000310AA0DAB0DAC0DAD0DB20B1C
:100748009E2B0130B2003208B3079A2B0130B20059
:100758000310B50DB60DB70DB80DB20BAC2B2D08A7
:100768003102031DC12B2C083002031DC12B2B089D
:100778002F02031DC12B2A082E02031CD22B2A0884
:10078800AE022B08031C2B0FAF022C08031C2C0FE6
:10079800B0022D08031C2D0FB102351401300310CF
:1007A800AD0CAC0CAB0CAA0CFF3E031DD32B0130D7
:1007B800B302031DAA2B34080319ED2BB509B6099A
:1007C800B709B809B50A0319B60A0319B70A03190C
:1007D800B80A3808AD003708AC003608AB00350851
:1007E800AA00080083120313C8010830480203183E
:1007F80008004808BE003E07013E84000A128A111C
:1008080095250A128A11BF000A128A1195250A1223
:100818008A11C0003B0884003F0883138000840AC3
:10082800400880003A08A7003908A6003B08840061
:100838000008BE00840A0008BF000310BE0DBF0DEB
:100848000310BE0DBF0D3E08A4003F08A5000A1204
:100858008A1106260A128A11831203132408C0007B
:100868002508C1000310C00DC10D0310C00DC10D36
:100878000310C00DC10D4008C2004108C300C401E7
:10088800C5014508AD004408AC004308AB00420868
:10089800AA000030B1007A30B0001230AF0000304A
:1008A800AE000A128A1167230A128A1183120313EF
:1008B8002B08C7002A08C600013047020030031978
:1008C80046020318792C4608BE003D0884003E08FD
:1008D800831380004808031908004808FF3EBE003B
:1008E8003C0884003E08800008000130BE003E0835
:1008F800C807F92BC83083120313C9000030CA0097
:100908000A128A1112250A128A1183160313D501B5
:10091800D5016430550203188C2C3530831203132B
:10092800D1005108B200831603135508831203132C
:10093800D200D3015208B3005308B400D0300A12D1
:100948008A115B210A128A11043083120313D10021
:100958005108B400D0300A128A1129200A128A11CB
:10096800203083120313A4004E30A5000A128A1106
:100978005A260A128A11013083120313D100510832
:1009880083160313D5078D2C831203132408A7009D
:100998002708A6062608A70003300310A70DFF3E68
:1009A800031DD12C0310270DA8002808A606260829
:1009B800A700A8010310A70DA80D0310A70DA80DE7
:1009C8000310A70DA80D2608A90004300310A90CD0
:1009D800FF3E031DEA2C2908AA00AB012508AD003B
:1009E8002408AC002D08AC00AD012608AE00AF010C
:1009F8002E08AF00AE012C082E04B0002D082F04DD
:100A0800B1002A083006B2002B083106B3002708C7
:100A18003206A40028083306A5000800831603132D
:100A2800861506128312031306124A08BA004908EB
:100A3800B9004F30CB004B08BB004E30CC004C08FF
:100A4800BC006630CD004D08BD000A128A11F6239D
:100A58000A128A110030831203135002023003195C
:100A68004F02031C452DF030CB004B0883160313AF
:100A78008105831203134E08CB004B08831603131A
:100A88008104831603138112831203136603FF3A4A
:100A9800023E81000B118B160B170B1F552D8B1760
:100AA80008008B13080083120313AA01AB01240862
:100AB80025040319902DA901A90AA51B6F2D013042
:100AC8000310A40DA50DFF3E031D642D0130A800E1
:100AD8002808A907612D01300310AA0DAB0DFF3EB0
:100AE800031D702D25082702031D7C2D24082602CE
:100AF800031C852D2408A6022508031CA703A702AA
:100B08002A1401300310A50CA40CFF3E031D862DEA
:100B18000130A902031D6F2D2B08A5002A08A40087
:100B2800080005308A000408840A8207003401346A
:100B380000340234003404340034083400341034EF
:100B4800003420340034403400348034003400341D
:100B580001340D340E3413341534163419341A3460
:100B68001C3423342534263429342A342C343234A2
:100B78003434013400340A34003464340034E83442
:100B88000334103427342A342A342A342A342A34B1
:100B98002A3438342C342534643400348312031353
:100BA8002C082D040319012EB101B10AAD1BE82D43
:100BB80001300310AC0DAD0DFF3E031DDD2D0130DE
:100BC800B0003008B107DA2D2D082F02031DEE2DD5
:100BD8002C082E02031CF62D2C08AE022D08031C2F
:100BE800AF03AF0201300310AD0CAC0CFF3E031D88
:100BF800F72D0130B102031DE82D2F08AD002E0896
:100C0800AC00080083120313A801A901241C122EAA
:100C18002608A8070318A90A2708A90701300310FE
:100C2800A60DA70DFF3E031D132E01300310A50CC2
:100C3800A40CFF3E031D1A2E24082504031D0A2EAA
:100C48002908A5002808A4000800F100F2011030C6
:100C580072020318442E7208133E84000A128A1185
:100C680095250A128A117106031D3C2E7208080088
:100C78000130F0007008F20710307202031C2F2EAA
:100C8800003008000B1D4D2E0A128A11D3220A12B9
:100C98008A11831203132308FF0022088A002108FF
:100CA8008400200E8300FE0E7E0E090001308312A0
:100CB8000313A4020030031CA503A502240A031D84
:100CC8005A2E250A031908005A2E83120313E3012A
:100CD800E001E501E201E20AE101E10A080064003D
:100CE8008001840A0406031900340406742E831252
:100CF80003136108031908007B2E831203130612DD
:040D0800E1010800FD
:02400E007AFF37
:00000001FF
