:040000008A11FD2F35
:100F5800F00083160313981CAD2F70088312031337
:100F680099000800831203138C1ABC2F0030080064
:100F7800981CC22F18121816003008001A0808000A
:100F880083160313860185018312031386018501E5
:100F98000B170B1FD12F8B1708008B130800831614
:100FA80003138612061518154D309900181283126E
:100FB8000313981783160313181398168312031331
:100FC8001813181608008A11C4278A118A11D32702
:100FD8008A11F201F3018A11B6278A11F10071080A
:100FE800F30073080319EF2F73088A11AC278A11CD
:080FF800EE2F83018A11E72F9F
:04400E004AFFFFFF67
:00000001FF
