:040000008A11112828
:10000800FE00030E83120313B2000408B3000A08AB
:10001800B4007F08B5008A118A298A11132883132E
:100028004630FD000130FE00B430FF003630840059
:100038008A11C821C601C701C801C901CA018301C3
:100048008A11A229F430831203134606031D472898
:100058000130F9007908C907C6013C304906031D7B
:100068003A280130F9007908C807C9013C30480628
:10007800031D43280130F9007908C707C801183063
:1000880047060319C7014A08031D6428051485118A
:10009800051185100A30F0000030F1004808F90019
:1000A800FA017908F2007A08F3008A1121218A11ED
:1000B80070088A116C2183120313CA01CA0A080046
:1000C8004A03031D832885148511051105100A307C
:1000D800F0000030F1004808F900FA017908F20050
:1000E8007A08F3008A11C8208A1170088A116C21D5
:1000F8000230F900790883120313CA00080002309D
:100108004A06031DAF2805158511851005100A300C
:10011800F0000030F1004708F900FA017908F20010
:100128007A08F3008A1121218A1170088A116C213A
:100138008A117A30831203134602031CA7288312FC
:1001480003130516AA288312031305120330F900B6
:100158007908CA00080085150511851005100A30B0
:10016800F0000030F1004708F900FA017908F200C0
:100178007A08F3008A11C8208A1170088A116C2144
:1001880083120313CA010800F601F11FD228F009EF
:10019800F109F00A0319F10AF601F60AF31FDD283E
:1001A800F209F309F20A0319F30A0130F40074089A
:1001B800F606F701F8017008710403191429F5010E
:1001C800F50AF11BF32801300310F00DF10DFF3E85
:1001D800031DE8280130F4007408F507E52801300C
:1001E8000310F70DF80DFF3E031DF4287108730284
:1001F800031D002970087202031C09297008F20205
:100208007108031CF303F302771401300310F10C97
:10021800F00CFF3E031D0A290130F502031DF328E7
:10022800760803191C29F709F809F70A0319F80AC7
:100238007808F1007708F0000800F601F31F2B2971
:10024800F209F309F20A0319F30AF601F60AF11F93
:100258003229F009F109F00A0319F10A700871044A
:1002680003195F29F501F50AF11B4629013003102E
:10027800F00DF10DFF3E031D3B290130F400740819
:10028800F507382971087302031D4C29700872029A
:10029800031C54297008F2027108031CF303F302CB
:1002A80001300310F10CF00CFF3E031D55290130FD
:1002B800F502031D4629760803196729F209F3098F
:1002C800F20A0319F30A7308F1007208F000080033
:1002D80083120313B000203084003630F000040885
:1002E800F1001030F2007008840083130008F30056
:1002F800F00A7108840073088000F10AF20B77296C
:100308003008203E84000009860008008B1A0B1D67
:1003180095290130B1003108C6078A1126208A11B3
:100328000B11831203133508FF0034088A003308C1
:100338008400320E8300FE0E7E0E0900831603131E
:100348009B01860185010130831203138500BF30AC
:100358008600D430831603138100E0308B00B32964
:100368003F3406345B344F3466346D347C340734A0
:100378007F346734003400340034003400340034EF
:100388007E088A007F088200C4218A118000840ABE
:1003980004087D0603190034FF0A0319FE0AC82958
:04400E006AFFFDFF49
:00000001FF
