:040000008A11112828
:10000800FE00030E83120313CA000408CB000A087B
:10001800CC007F08CD008A115E298A111328831627
:1000280003138A11B2248A11A0008A11B3248A11F9
:10003800A1008A11B4248A11A2008A11B524A30050
:1000480083120313ED01EE0183018A11D42B83126D
:100058000313BE002B30B0003008BD000130AA07E2
:10006800FF302A0784008A1142238A11B000300821
:10007800BF003F080319592925303F0603195028A6
:100088003F08B0003E088400300883138000013028
:10009800B0003008BE073228B501862835168628F4
:1000A8003D08840083130008B0003008BC0001300C
:1000B800B0003008BD073C08031D66283730B00083
:1000C8003008BC003C0884008A1142238A11003A97
:1000D800031932283C0884008A1142238A11B0008F
:1000E8003E088400300880000130B0003008BC07AA
:1000F8000130B0003008BE076628C030B0003008B4
:10010800B5049C280130AA07FF302A0784008A1109
:1001180042238A11BF00003A031959296C3A03197E
:1001280052281F3A03195428063A031981283228FD
:10013800351EAE283D08840083130008B800840AE1
:100148000008B900840A0008BA00840A0008BB0045
:100158000430BD283D08840083130008B000840AD9
:100168000008B1003008B8003108B900BA01BB0175
:100178000230B0003008BD07BF01BF0A0A303F0691
:100188000319FA283F08B00001300310B00DFF3EF4
:10019800031DC9280310300D013E84008A11422333
:1001A8008A11B1008A1142238A11B2008A114223AE
:1001B8008A11B3008A1142238A11B40034083B0221
:1001C800031DF02833083A02031DF02832083902CB
:1001D800031DF02831083802031CFA280130B0004A
:1001E8003008BF070A303F06031DC6283F08B6007F
:1001F800B701B61BB703FF30B6070318B70AFF30BD
:10020800B707360A0319370A031932280030A30042
:100218000030A2000030A1000A30A0003608B0006B
:1002280001300310B00DFF3E031D15290310300DDA
:10023800013E84008A1142238A11F0008A11422368
:100248008A11F1008A1142238A11F2008A1142238D
:100258008A11F3003B08F7003A08F6003908F50060
:100268003808F4008A1196228A117308831203133E
:10027800A7007208A6007108A5007008A4008A11DA
:10028800F4228A11831203132008303EB10031088A
:10029800BF003F08B0003E08840030088313800088
:1002A8000130B0003008BE07FF283E0884008313E1
:1002B800800108008B1A0B1DF8290B110130ED077E
:1002C8000318EE0A0030EE073D30F0000030F10070
:1002D80003106D0DF2006E0DF3008A1108248A11C7
:1002E80070087104031D7C290430831203138506EA
:1002F8000030831203136E023D3003196D02031C94
:10030800F829ED01EE01EC01EC0102306C02031852
:10031800F0292930C0004008AA006C08A23E8400D9
:1003280083130008C1004108AB006C08A03E84009C
:1003380000088A1105228A11700883120313C2006B
:100348007108C300C401C5014508F8004408F70056
:100358004308F6004208F5000030FC000030FB00BE
:100368000030FA006430F9008A118F238A11750869
:1003780083120313C6007608C7007708C8007808F8
:10038800C9000A300310C90CC80CC70CC60CFF3EC4
:10039800031DC6294908AF004808AE004708AD004C
:1003A8004608AC004E308A112B208A114E308A1133
:1003B8004E248A110A308A11A8248A110D308A1114
:1003C800A8248A11013083120313C0004008EC07E7
:1003D80002306C02031C8D290A308A11A8248A1164
:1003E8000D308A11A8248A11831203134D08FF00C7
:1003F8004C088A004B0884004A0E8300FE0E7E0ECD
:100408000900F4007408F200F20DF20DF20D8312E7
:1004180003131F087206C73972069F00752A8316D0
:1004280003131B141B1C1C2A831603130514812A8F
:10043800831603130510812A831603139B149B1C30
:10044800292A831603138514812A8316031385101A
:10045800812A831603131B151B1D362A83160313C3
:100468000515812A831603130511812A83160313A0
:100478009B159B1D432A831603138515812A831612
:1004880003138511812A831603131B161B1E502A7A
:10049800831603130516812A831603130512812A6E
:1004A800831603139B169B1E5D2A8316031385165A
:1004B800812A831603138512812A831603131B17B7
:1004C8001B1F6A2A831603130517812A8316031331
:1004D8000513812A831603139B018501F001F1019D
:1004E8000800740884000730040203186E2A0430D8
:1004F8008A000310040D833E82000630F30030307A
:10050800F200F20B852AF30B852A000083120313ED
:100518001F151F198D2A1E08F100831603131E08C4
:10052800F00008000030FC000030FB000030FA004A
:100538000030F90073087204710470040319EB2A7F
:10054800FD01FD0AF31BB62A0130F8000310F00D77
:10055800F10DF20DF30DF80BAA2A0130F800780816
:10056800FD07A62A0130F8000310F90DFA0DFB0D5E
:10057800FC0DF80BB82A73087702031DCD2A720800
:100588007602031DCD2A71087502031DCD2A700855
:100598007402031CDE2A7008F4027108031C710F30
:1005A800F5027208031C720FF6027308031C730F1E
:1005B800F702791401300310F30CF20CF10CF00C73
:1005C800FF3E031DDF2A0130FD02031DB62A7C0809
:1005D800F3007B08F2007A08F1007908F0000800BF
:1005E8008312031323082204210420040319392B3E
:1005F800A901A90AA31B0E2B0130A8000310A00D06
:10060800A10DA20DA30DA80B022B0130A8002808EC
:10061800A907FE2A23082702031D1C2B22082602ED
:10062800031D1C2B21082502031D1C2B2008240256
:10063800031C2C2B2008A4022108031C210FA5024F
:100648002208031C220FA6022308031C230FA7025B
:1006580001300310A30CA20CA10CA00CFF3E031D3B
:100668002D2B0130A902031D0E2B2708A3002608F5
:10067800A2002508A1002408A000080003308A0071
:100688000408840A8207003401340034003400343A
:100698000A34003400340034643400340034003444
:1006A800E834033400340034103427340034003480
:1006B800A034863401340034403442340F340034DA
:1006C80080349634983400340034E134F5340534F9
:1006D8000034CA349A343B34253473343A342034E1
:1006E80025346C34753420342F342034313430348C
:1006F8003034003428346E3475346C346C34293416
:1007080000344C3469346734683474340034473402
:10071800613473340034003083120313A3000030B3
:10072800A2000030A1000030A000751CB12B790890
:1007380083120313A0077A0803110318013E031D4F
:10074800A1077B0803110318013E031DA2077C08BB
:1007580003110318013E031DA3070130FD00031018
:10076800F90DFA0DFB0DFC0DFD0BB32B0130031039
:10077800F80CF70CF60CF50CFF3E031DBB2B7808A4
:10078800770476047504031D992B83120313230839
:10079800F8002208F7002108F6002008F5000800F4
:1007A8008A1161248A118A119D248A118A113A2496
:1007B8008A118A1173248A118A1191248A11831645
:1007C8000313A4002408A50025080319E02B74309E
:1007D8002506031DF42B0830831203138506E02B2E
:1007E8003130831603132506031DFE2B83120313D2
:1007F8008515E02B3030831603132506031DE02BE7
:10080800831203138511E02B700871040319352C2A
:10081800F501F50AF11B1C2C01300310F00DF10D48
:10082800FF3E031D112C0130F4007408F5070E2C4F
:1008380071087302031D222C70087202031C2A2CF3
:100848007008F2027108031CF303F302013003106D
:10085800F10CF00CFF3E031D2B2C0130F502031D9B
:100868001C2C7308F1007208F000080083160313AB
:1008780006158612181533309900181283120313BF
:100888009817831603131813981683120313181353
:1008980018160800F2007208840083130008031970
:1008A800080072088400831300088A11A8248A119A
:1008B8000130F1007108F2074F2C831603139B01D6
:1008C80086018501831203138601850105158515A7
:1008D8000B170B1F712C8B1708008B13080083163E
:1008E80003131F13831203139F171F138316031376
:1008F8009F121F129F17831203131F1408008A11D7
:10090800132A8A11202A8A112D2A8A113A2A8A1131
:10091800472A8A11542A8A11612A831203138C1ECA
:10092800912C981C9B2C18121816003008001A08D5
:1009380008000B118B16831603138112811101080D
:10094800F839063881000800F00083160313981C54
:10095800A92C70088312031399000800003401348D
:040968003E344434A1
:04400E004AFFFFFF67
:00000001FF
