:040000008A11112828
:10000800FE00030EF0000408F1000A08F200831253
:1000180003137F08F3008A11F02D8A111328F801C1
:10002800F901A001A101A201A30183018A111C28E1
:1000380083160313811281158B168B1E25288B17A7
:1000480026288B130B11803083120313810083162B
:1000580003139B0186018501831203138601850121
:10006800831203132308031D5F282208031D5F283A
:1000780016302102031D4428E3302002031D4428C2
:1000880003185F287908F5007808F400E830F600CE
:100098000330F7008A11C9258A114530750270307E
:1000A80003197402031C34280230831203138506D3
:1000B800F801F90134280030A3000030A200003014
:1000C800A1000030A000831203132308031D922807
:1000D8002208031D92280B302102031D7728723055
:1000E8002002031D7728031892287908F50078085C
:1000F800F400E830F6000330F7008A11C9258A11A8
:1001080052307502933003197402031C67280230B9
:10011800831203138506F801F90167280030A3004C
:100128000030A2000030A1000030A00083120313A9
:100138002308031DC5282208031DC5280B302102EA
:10014800031DAA2872302002031DAA280318C528F7
:100158007908F5007808F400E830F6000330F70075
:100168008A11C9258A11573075027C300319740227
:10017800031C9A280230831203138506F801F9013B
:100188009A280030A3000030A2000030A1000030FF
:10019800A000831203132308031DF8282208031D57
:1001A800F82816302102031DDD28E3302002031D44
:1001B800DD280318F8287908F5007808F400E830F5
:1001C800F6000330F7008A11C9258A114D307502EF
:1001D800F13003197402031CCD2802308312031373
:1001E8008506F801F901CD280030A3000030A200EF
:1001F8000030A1000030A000831203132308031D60
:100208002B292208031D2B290B302102031D10293D
:1002180072302002031D102903182B297908F500D4
:100228007808F400E830F6000330F7008A11C92591
:100238008A11573075027C3003197402031C002997
:100248000230831203138506F801F90100290030F2
:10025800A3000030A2000030A1000030A0008312EB
:1002680003132308031D5E292208031D5E290B3092
:100278002102031D432972302002031D432903185C
:100288005E297908F5007808F400E830F6000330B4
:10029800F7008A11C9258A11523075029330031963
:1002A8007402031C33290230831203138506F801F4
:1002B800F90133290030A3000030A2000030A1006A
:1002C8000030A000831203132308031D912922087C
:1002D800031D912916302102031D7629E3302002DF
:1002E800031D7629031891297908F5007808F40088
:1002F800E830F6000330F7008A11C9258A11683002
:1003080075020A3003197402031C6629023083122D
:1003180003138506F801F90166290030A3000030AF
:10032800A2000030A1000030A000831203132308AC
:10033800031DC4292208031DC4290B302102031DF3
:10034800A92972302002031DA9290318C429790894
:10035800F5007808F400E830F6000330F7008A1159
:10036800C9258A11683075020A3003197402031C02
:1003780099290230831203138506F801F901992996
:100388000030A3000030A2000030A1000030A0001F
:10039800831203132308031DF7292208031DF729D5
:1003A8000B302102031DDC2972302002031DDC29D9
:1003B8000318F7297908F5007808F400E830F60002
:1003C8000330F7008A11C9258A11573075027C302D
:1003D80003197402031CCC29023083120313850607
:1003E800F801F901CC290030A3000030A200003048
:1003F800A1000030A000831203132308031D2A2A3A
:100408002208031D2A2A16302102031D0F2AE33071
:100418002002031D0F2A03182A2A7908F5007808F4
:10042800F400E830F6000330F7008A11C9258A1174
:1004380045307502703003197402031CFF2902301D
:10044800831203138506F801F901FF290030A30080
:100458000030A2000030A1000030A0008312031376
:100468002308031D5D2A2208031D5D2A0B30210283
:10047800031D422A72302002031D422A03185D2AF6
:100488007908F5007808F400E830F6000330F70042
:100498008A11C9258A114D307502F1300319740289
:1004A800031C322A0230831203138506F801F9016E
:1004B800322A0030A3000030A2000030A100003032
:1004C800A000831203132308031D902A2208031D8A
:1004D800902A0B302102031D752A72302002031D59
:1004E800752A0318902A7908F5007808F400E8308E
:1004F800F6000330F7008A11C9258A1157307502B2
:100508007C3003197402031C652A0230831203131A
:100518008506F801F901652A0030A3000030A20021
:100528000030A1000030A000831203132308031D2C
:10053800C32A2208031DC32A19302102031DA82A31
:10054800C6302002031DA82A0318C32A7908F5001B
:100558007808F400E830F6000330F7008A11C9255E
:100568008A1152307502933003197402031C982AB9
:100578000230831203138506F801F901982A003026
:10058800A3000030A2000030A1000030A0008312B8
:1005980003132308031DF62A2208031DF62A0B302D
:1005A8002102031DDB2A72302002031DDB2A0318F7
:1005B800F62A7908F5007808F400E830F6000330E8
:1005C800F7008A11C9258A11573075027C30031942
:1005D8007402031CCB2A0230831203138506F80128
:1005E800F901CB2A0030A3000030A2000030A1009E
:1005F8000030A000831203132308031D292B2208AF
:10060800031D292B16302102031D0E2BE330200277
:10061800031D0E2B0318292B7908F5007808F40020
:10062800E830F6000330F7008A11C9258A114D30E9
:100638007502F13003197402031CFE2A023083127A
:1006480003138506F801F901FE2A0030A3000030E3
:10065800A2000030A1000030A00083120313230879
:10066800031D5C2B2208031D5C2B16302102031D81
:10067800412BE3302002031D412B03185C2B790822
:10068800F5007808F400E830F6000330F7008A1126
:10069800C9258A1145307502703003197402031C8C
:1006A800312B0230831203138506F801F901312B2F
:1006B8000030A3000030A2000030A1000030A000EC
:1006C800831203132308031D8F2B2208031D8F2B6E
:1006D80016302102031D742BE3302002031D742BF6
:1006E80003188F2B7908F5007808F400E830F60035
:1006F8000330F7008A11C9258A11573075027C30FA
:1007080003197402031C642B023083120313850639
:10071800F801F901642B0030A3000030A20000307A
:10072800A1000030A000831203132308031DC22B6D
:100738002208031DC22B16302102031DA72BE3300C
:100748002002031DA72B0318C22B7908F50078088F
:10075800F400E830F6000330F7008A11C9258A1141
:10076800683075020A3003197402031C972B023093
:10077800831203138506F801F901972B0030A300B3
:100788000030A2000030A1000030A0008312031343
:100798002308031DF52B2208031DF52B0B3021021E
:1007A800031DDA2B72302002031DDA2B0318F52BF8
:1007B8007908F5007808F400E830F6000330F7000F
:1007C8008A11C9258A11683075020A300319740222
:1007D800031CCA2B0230831203138506F801F901A2
:1007E800CA2B0030A3000030A2000030A100003066
:1007F800A000831203132308031D282C2208031DBD
:10080800282C0B302102031D0D2C72302002031DF1
:100818000D2C0318282C7908F5007808F400E83026
:10082800F6000330F7008A11C9258A11683075026D
:100838000A3003197402031CFD2B023083120313C0
:100848008506F801F901FD2B0030A3000030A20055
:100858000030A1000030A000831203132308031DF9
:100868005B2C2208031D5B2C0B302102031D402C3E
:1008780072302002031D402C03185B2C7908F50008
:100888007808F400E830F6000330F7008A11C9252B
:100898008A1152307502933003197402031C302CEC
:1008A8000230831203138506F801F901302C003059
:1008B800A3000030A2000030A1000030A000831285
:1008C80003132308031D8E2C2208031D8E2C0B30C6
:1008D8002102031D732C72302002031D732C031890
:1008E8008E2C7908F5007808F400E830F60003301B
:1008F800F7008A11C9258A11573075027C3003190F
:100908007402031C632C0230831203138506F8015A
:10091800F901632C0030A3000030A2000030A100D0
:100928000030A000831203132308031DC12C2208E2
:10093800031DC12C19302102031DA62CC63020022C
:10094800031DA62C0318C12C7908F5007808F400BB
:10095800E830F6000330F7008A11C9258A114D30B6
:100968007502F13003197402031C962C02308312AD
:1009780003138506F801F901962C0030A300003016
:10098800A2000030A1000030A00083120313230846
:10099800031DF42C2208031DF42C0B302102031D27
:1009A800D92C72302002031DD92C0318F42C790895
:1009B800F5007808F400E830F6000330F7008A11F3
:1009C800C9258A11413075028A3003197402031C43
:1009D800C92C0230831203138506F801F901C92CCA
:1009E8000030A3000030A2000030A1000030A000B9
:1009F800831203132308031D272D2208031D272D07
:100A080016302102031D0C2DE3302002031D0C2D8E
:100A18000318272D7908F5007808F400E830F60067
:100A28000330F7008A11C9258A1134307502053060
:100A380003197402031CFC2C02308312031385066D
:100A4800F801F901FC2C0030A3000030A2000030AE
:100A5800A1000030A000831203132308031D5A2DA0
:100A68002208031D5A2D0B302102031D3F2D723021
:100A78002002031D3F2D03185A2D7908F500780828
:100A8800F400E830F6000330F7008A11C9258A110E
:100A98003A307502643003197402031C2F2D02309A
:100AA800831203138506F801F9012F2D0030A300E6
:100AB8000030A2000030A1000030A0008312031310
:100AC8002308031D8D2D2208031D8D2D0B302102B7
:100AD800031D722D72302002031D722D03188D2DF7
:100AE8007908F5007808F400E830F6000330F700DC
:100AF8008A11C9258A11413075028A300319740296
:100B0800031C622D0230831203138506F801F901D4
:100B1800622D0030A3000030A2000030A100003098
:100B2800A000831203132308031DC02D2208031DF0
:100B3800C02D19302102031DA52DC6302002031D2A
:100B4800A52D0318C02D7908F5007808F400E830C1
:100B5800F6000330F7008A11C9258A11453075025D
:100B6800703003197402031C952D0230831203138D
:100B78008506F801F901952D0030A3000030A20088
:100B88000030A1000030A000342883120313A40110
:100B9800A501741CD72D760883120313A407031824
:100BA800A50A7708A50701300310F60DF70DFF3EDB
:100BB800031DD82D01300310F50CF40CFF3E031D66
:100BC800DF2D74087504031DCD2D8312031325082A
:100BD800F5002408F40008008B1A0B1D0A2E0130BA
:100BE800F8070318F90A0030F9070130A0070030A8
:100BF80003180130A107003003180130A2070030A4
:100C080003180130A307803081000B117308FF001F
:100C180072088A0071088400700E8300FE0E7E0E32
:020C28000900C1
:04400E002AFFFFFF87
:00000001FF
