:040000008A11112828
:10000800FE00030E83120313A0000408A1000A08CF
:10001800A2007F08A3008A11C62C8A111328FD01AB
:100028008313573084006B308A11ED248A11A03075
:100038008400E8308A11ED2483018A115B29831238
:100048000313630803192C280130F3007308DF0732
:10005800630861060319432850306202031C3628DE
:100068001D3037280B30F8000030F9007808F3000D
:100078007308E2076308F3007308E10047281430A7
:10008800F3007308E207A0306202031C0800013085
:100098000310D80CD70CFF3E031D4C2805305F0217
:1000A8000318D815A030E202DF0159080319B42853
:1000B8000130F3007308DA070C305A02031C0800F9
:1000C8005808F4005708F30006300310F40CF30C3A
:1000D800FF3E031D692873088A117D248A11F500E3
:1000E8008312031357083F398A117D248A11F600B9
:1000F80003300310F60DFF3E031D7D280310760D17
:100108007504F7007708FA007D08031D9B287A0814
:10011800F300730883120313DB0004305B02031C33
:10012800992819305B02031C9B28D90108007A081A
:10013800F3007D08A03E840073088313800001301B
:10014800F3007308FD07831203135B087D02031C89
:10015800B228D9010130F3007308DC00DA01080085
:10016800383057060B3003195806031D0800D9010B
:10017800D90ADA01FD01DC010800831203136A03BE
:10018800FF3A043EFB007B0881070B115D08031949
:10019800DF286508031DDF2860080319DB28031022
:1001A800861D0314003003180130E300DF280030F7
:1001B80086190130E300650803194E290130FB0058
:1001C8007B08E9076903031D4E29660803191B29E3
:1001D8006708233E84008A1149238A11FB000130F5
:1001E800FC00640AF9280310FC0DFF3E031DF728E4
:1001F8007C087B05031904298312031306160729B3
:100208008312031306120130FB007B08E407063053
:100218006402031C1429E4010130FB007B08E70792
:1002280008306702031C4E29E601E7014E296808D9
:100238006702031C29298A11FC248A1183120313DB
:100248005E08FB007B08DD004E296708A03E84009D
:100258000130FB00640A32290310FB0DFF3E031D29
:1002680030297B088313000503193E2983120313E1
:10027800061641298312031306120130FB007B087E
:10028800E40706306402031C4E29E4010130FB0038
:100298007B08E707083069020318E9015D080319BC
:1002A80008006508031D08008A112320080083162A
:1002B800031386018312031386018A11B2248A115B
:1002C800C83083120313C9000030CA008A118C2376
:1002D8008A112B308A1198248A110D308A11D8245A
:1002E8008A110A308A11D8248A1110308312031314
:1002F800D3003930D2000D30D100D10B8129D20B77
:100308008129D30B81292B308A1198248A110D3029
:100318008A11D8248A110A308A11D8248A111030F7
:1003280083120313D3003930D2000D30D100D10B22
:100338009B29D20B9B29D30B9B292B308A119824FC
:100348008A110D308A11D8248A110A308A11D824CA
:100358008A118A11F5248A118A11E4248A11003A33
:100368000319B029183083120313D1005108D6009D
:100378005630D1005108BA00D0308A11CF238A11E3
:10038800003A0319B02983120313D401D501560882
:10039800D100D20152085502031DD4295108540234
:1003A8000318E7295408D03E8400831300088A11F3
:1003B800D8248A11013083120313D4070318D50AED
:1003C8000030D507CB290D308A11D8248A110A307C
:1003D8008A11D8248A11B02983120313B401AD1FDE
:1003E800022AAA09AB09AC09AD09AA0A0319AB0A82
:1003F8000319AC0A0319AD0AB401B40AB11F132AD0
:10040800AE09AF09B009B109AE0A0319AF0A031959
:10041800B00A0319B10A0130B2003208B40600303C
:10042800B8000030B7000030B6000030B5002D0825
:100438002C042B042A040319682AB301B30AAD1B40
:10044800332A0130B2000310AA0DAB0DAC0DAD0D6F
:10045800B20B272A0130B2003208B307232A013031
:10046800B2000310B50DB60DB70DB80DB20B352A95
:100478002D083102031D4A2A2C083002031D4A2A7E
:100488002B082F02031D4A2A2A082E02031C5B2A66
:100498002A08AE022B08031C2B0FAF022C08031CE2
:1004A8002C0FB0022D08031C2D0FB102351401309A
:1004B8000310AD0CAC0CAB0CAA0CFF3E031D5C2A60
:1004C8000130B302031D332A34080319762AB5090B
:1004D800B609B709B809B50A0319B60A0319B70A5C
:1004E8000319B80A3808AD003708AC003608AB0065
:1004F8003508AA00080083120313C801083048020F
:10050800031808004808BE003E07013E84008A110F
:1005180049238A11BF008A1149238A11C0003B0868
:1005280084003F0883138000840A400880003A084A
:10053800A7003908A6003B0884000008BE00840A0A
:100548000008BF000310BE0DBF0D0310BE0DBF0D88
:100558003E08A4003F08A5008A113C248A11831292
:1005680003132408C0002508C1000310C00DC10DE5
:100578000310C00DC10D0310C00DC10D4008C2000D
:100588004108C300C401C5014508AD004408AC00DA
:100598004308AB004208AA000030B100B730B000F1
:1005A8001B30AF000030AE008A11F0218A1183128F
:1005B80003132B08C7002A08C60001304702003081
:1005C800031946020318FA2A4608BE003D088400AB
:1005D8003E08831380004808031908004808FF3EB6
:1005E800BE003C0884003E08800008000130BE00C0
:1005F8003E08C807822A831203132408A700270885
:10060800A6062608A70003300310A70DFF3E031D0A
:10061800082B0310270DA8002808A6062608A700FF
:10062800A8010310A70DA80D0310A70DA80D03100E
:10063800A70DA80D2608A90004300310A90CFF3E39
:10064800031D212B2908AA00AB012508AD002408A9
:10065800AC002D08AC00AD012608AE00AF012E0895
:10066800AF00AE012C082E04B0002D082F04B100F5
:100678002A083006B2002B083106B30027083206D4
:10068800A40028083306A500080003308A000408DF
:10069800840A8207003401340034023400340434FC
:1006A800003408340034103400342034003440342A
:1006B800003480340034003401340D340E341334E3
:1006C8001534163419341A341C342334253426349A
:1006D80029342A342C34323434342A342A342A340F
:1006E8002A342A342A3438342C34503449344334A4
:1006F800203452346534633465346934763465346F
:1007080072342034443465346D346F340A34003420
:1007180083160313861506128312031306124A085A
:10072800BA004908B9004E30CB004B08BB00503026
:10073800CC004C08BC006A30CD004D08BD008A11C1
:100748007F228A110030831203134F0202300319EB
:100758004E02031CBD2BF030CB004B08831603134D
:100768008105831203135008CB004B08831603132B
:100778008104831603138112831203136A03FF3A59
:10078800023E81000B118B160B170B1FCD2B8B17FD
:1007980008008B13080083120313BE005C08031DB6
:1007A800D72B003008007D08FD3EBB003B08BF008A
:1007B8003A088400831300083F020318E92B3F0816
:1007C800BB003A0884003B088000A130BB003B080E
:1007D800A4003A0884000008BC00BD013C08A5003C
:1007E8003D08A6003E088A115F248A11831203136C
:1007F800DC017D08BB003B08B400A0308A1112243C
:100808008A11B830831203133406F0300319350601
:10081800031D102C01300800003008008312031358
:10082800B700FF30B800FF30B9000130B402340A15
:100838000319372C3908A5003808A40037088400A4
:1008480083130008B6003608A6008A11FF228A1111
:10085800831203132508B9002408B8000130B60034
:100868003608B707192C3908B5003808B40008004D
:1008780083120313A801A901241C482C2608A807E1
:100888000318A90A2708A90701300310A60DA70D08
:10089800FF3E031D492C01300310A50CA40CFF3E9C
:1008A800031D502C24082504031D402C2908A500ED
:1008B8002808A400080083120313AA000130A50227
:1008C8000030031CA603A602250A0319260A0319E9
:1008D800080025082407A7002708840083130008B8
:1008E800A80025082A07A9002908840028088000EC
:1008F800622CF100F201103072020318962C720873
:10090800133E84008A1149238A117106031D8E2C17
:10091800720808000130F0007008F2071030720207
:10092800031C832C0030080083120313A60026083A
:1009380084008A1149238A11003A031908002608FD
:1009480084008A1149238A118A11D8248A11013016
:1009580083120313A5002508A6079B2C83160313EF
:100968000615861218154D309900181283120313B4
:100978009817831603131813981683120313181362
:10098800181608000B1DCB2C8A11C1208A1183125E
:1009980003132308FF0022088A0021088400200E80
:1009A8008300FE0E7E0E090083120313A400831633
:1009B8000313981CDB2C83120313240899000800E6
:1009C800831203135C080319EB2C01300800003074
:1009D800080064008001840A040603190034040630
:1009E800EE2C83120313DD01DD0ADE01DE0A0800A6
:0A09F800831203130612E501080044
:04400E004AFFFFFF67
:00000001FF
