:060000000A128A11122809
:10000800FE00030E83120313BF000408C0000A0891
:10001800C1007F08C2000A128A15152E0A128A1119
:1000280015288313433084005C300A128A15C321D3
:100038000A128A11D4308400EE300A128A15C321BC
:100048000A128A11831790308400CC300A128A155C
:10005800C32183010A128A11392CB1308316031384
:10006800B2003208B9000130B007FF303007840011
:100078000A128A1123270A128A11B2003208C00014
:1000880040080319342A25304006031957282E083A
:10009800840083132F188317400880000130AE07AF
:1000A8000318AF0A3728BE01BF01B501602835150E
:1000B8000130B2003208B007300884000A128A11F1
:1000C80023270A128A11303A03195B286B28300853
:1000D80084000A128A1123270A128A110A128A1521
:1000E800E8210A128A11031C4F2983160313BE0143
:1000F800BF010A3083160313A0000030A1003F0897
:10010800A3003E08A2000A128A15A3220A128A1125
:10011800831603132108BF002008BE00300884009E
:100128000A128A1123270A128A11D03EB200FF3020
:1001380003180030B3003208BE070318BF0A33089B
:10014800BF070130B2003208B007300884000A1235
:100158008A1123270A128A110A128A15E8210A121B
:100168008A11031C4F297D2883160313390884003C
:1001780083130008BA000030BB000130B200320817
:10018800B9073A083B04031DCD287730BA00803000
:10019800BB00BC01BD013C083A0784003B080318BA
:1001A8003B0A83120313FF000A128A1119270A1245
:1001B8008A11003A0319E928013083160313BC0792
:1001C8000318BD0A0030BD07CF28831603133F0864
:1001D8003D02031DF1283E083C020318FA283C089A
:1001E800BE023D08031CBF03BF02FC28BE01BF01BD
:1001F800FF30BE070318BF0AFF30BF073E0A0319C6
:100208003F0A031934292E08840083132F188317F3
:10021800203080000130AE070318AF0AFC283B08E5
:1002280083120313FF00831603133A088400831212
:1002380003130A128A1119270A128A118316031343
:10024800B2002E08840083132F1883173208800009
:100258000130BA070318BB0A0130AE070318AF0A0A
:100268000130BC020030031CBD03BD023C0A031D63
:1002780013293D0A031937281329C030BA00003062
:10028800BB000130BC000030BD00E928C030B2001E
:100298003208B5046629013083160313B007FF300E
:1002A800300784000A128A1123270A128A11C00013
:1002B800003A0319342A733A0319B828063A03197D
:1002C8004A2941293908840083130008B600840AA2
:1002D8000008B7000230B2003208B907C001C00AEE
:1002E80005304006031999294008B2003207233E19
:1002F80084000A128A1123270A128A11B3000A12EB
:100308008A1123270A128A11B40034083702031D00
:100318008F2933083602031C99290130B2003208AC
:10032800C00705304006031D78294008B200B30114
:10033800B21BB3033308803AB4003F08803A340252
:10034800031DA8293E0832020318B829831603138F
:100358004008B200B301B21BB3033208BE0233082F
:10036800031CBF03BF02BC2983160313BE01BF01D0
:10037800351DD4293E083F040319ED292E088400B1
:1003880083132F188317303080000130AE0703180D
:10039800AF0AFF30BE070318BF0AFF30BF07BE29E8
:1003A8003E083F040319ED292E08840083132F18F3
:1003B8008317203080000130AE070318AF0AFF30E2
:1003C800BE070318BF0AFF30BF073E083F04031DDE
:1003D800D8294008B2003208B800FF30B20032080D
:1003E800B807380A031937280A30A8000030A900CE
:1003F8003808B2003207233E84000A128A112327E4
:100408000A128A11A0000A128A1123270A128A11D5
:10041800A1003708A3003608A2000A128A15B224E0
:100428000A128A11831603132108AB002008AA00B8
:100438000A128A150A240A128A1183160313280835
:10044800303EB3003308C0002E08840083132F18F1
:100458008317400880000130AE070318AF0AF1295E
:10046800831603132E08840083172F1C831380011F
:100478000800233083120313A9002908B0000130B3
:10048800A207FF30220784000A128A1123270A12C2
:100498008A11A9002908B70037080319302C25301C
:1004A80037060319632A2008840083132118831749
:1004B800370880000130A0070318A10A432AB501B4
:1004C800B601AC016C2A2C150130A9002908A20735
:1004D800220884000A128A1123270A128A11303A44
:1004E8000319672A772A220884000A128A11232707
:1004F8000A128A110A128A15CB210A128A11031CC0
:100508004D2B83120313B501B6010A30F0000030F9
:10051800F100831203133608F3003508F2000A12BB
:100528008A1582220A128A11710883120313B600EF
:100538007008B500220884000A128A1123270A12BB
:100548008A11D03EA900FF3003180030AA002908FC
:10055800B5070318B60A2A08B6070130A900290802
:10056800A207220884000A128A1123270A128A1174
:100578000A128A15CB210A128A11031C4D2B892ACB
:10058800831203133008840083130008B10000307D
:10059800B2000130A9002908B00731083204031D50
:1005A800D92A7730B1008030B200B301B4013308E2
:1005B8003107840032080318320AFF000A128A1130
:1005C80019270A128A11003A0319F12A0130B307D0
:1005D8000318B40A0030B407DB2A36083402031DB6
:1005E800F72A350833020318002B3308B5023408FC
:1005F800031CB603B602022BB501B601FF30B507DE
:100608000318B60AFF30B607350A0319360A031964
:10061800322B200884008313211883172030800090
:100628000130A0070318A10A022B3208FF00310885
:1006380084000A128A1119270A128A11A9002008AF
:100648008400831321188317290880000130B1071B
:100658000318B20A0130A0070318A10A0130B30237
:100668000030031CB403B402330A031D192B340AE7
:100678000319432A192B3730B1000030B20001307A
:10068800B3000030B400F12AC030A9002908AC0436
:10069800642B013083120313A207FF302207840062
:1006A8000A128A1123270A128A11B700003A03197D
:1006B800302C733A0319C42A063A0319482B3F2BE6
:1006C8003008840083130008AD00840A0008AE00D7
:1006D8000230A9002908B007B701B70A0530370664
:1006E8000319972B3708A9002907233E84000A120B
:1006F8008A1123270A128A11AA000A128A112327AB
:100708000A128A11AB002B082E02031D8D2B2A0812
:100718002D02031C972B0130A9002908B7070530C3
:100728003706031D762B3708A900AA01A91BAA03BF
:100738002A08803AAB003608803A2B02031DA62B04
:10074800350829020318B62B831203133708A900AA
:10075800AA01A91BAA032908B5022A08031CB60383
:10076800B602BA2B83120313B501B6012C1DD22B86
:10077800350836040319EB2B20088400831321184D
:100788008317303080000130A0070318A10AFF301A
:10079800B5070318B60AFF30B607BC2B3508360470
:1007A8000319EB2B200884008313211883172030AA
:1007B80080000130A0070318A10AFF30B50703180D
:1007C800B60AFF30B60735083604031DD62B37089E
:1007D800A9002908AF00FF30A9002908AF072F0A90
:1007E8000319432A0A30F8000030F9002F08A9003D
:1007F8002907233E84000A128A1123270A128A1124
:10080800F0000A128A1123270A128A11F1002E0811
:10081800F3002D08F2000A128A1576240A128A11AA
:100828007108FB007008FA000A128A15D8230A1208
:100838008A117808303E83120313AA002A08B700E9
:10084800200884008313211883173708800001309B
:10085800A0070318A10AEF2B8312031320088400B2
:100868008317211C8313800108000A128A15F821B6
:100878000A128A110A128A15D9210A128A110A1231
:100888008A110B250A128A11C83083160313C50072
:100898000030C6000A128A15F0240A128A110A12B8
:1008A8008A15BC210A128A110A128A11F5270A121E
:1008B8008A11003A0319B22C0A3083160313CD00AB
:1008C8004D08D100D130CD004D08B600E3300A12F2
:1008D8008A11A8270A128A11003A0319B22CD230B9
:1008E80083160313CD004D08AE00D330CE004E085A
:1008F800AF00E3300A128A15C6220A128A1183163B
:10090800031352080A128A1578260A128A118316C6
:1009180003132708D0002608CF004F085004031DF2
:100928009B2C9030AE000130AF006A30A62C8316A5
:1009380003134F035004031DB22CA430AE00013042
:10094800AF005B30CD004D08B0005308CE004E0814
:10095800B1000A128A1131200A128A110230831654
:100968000313CD004D08A40001300A128A152F2563
:100978000A128A11353083160313A3008030A400AD
:100988000A128A1546230A128A11053083160313A0
:10099800CD004D08A40002300A128A152F250A122C
:1009A8008A11D43083160313A3000030A4000A125E
:1009B8008A1546230A128A1183160313A401A40A6E
:1009C80003300A128A152F250A128A1190308316CD
:1009D8000313A3000130A4000A128A1546230A1241
:1009E8008A1183160313A401A40A04300A128A1573
:1009F8002F250A128A11A43083160313A30001308D
:100A0800A4000A128A1546230A128A11582C4E305D
:100A180083160313A500EA30A400A40B112DA50B1F
:100A2800112D000003300A128A1544220A128A1175
:100A38004E3083160313A500EA30A400A40B222D20
:100A4800A50B222D000003300A128A1544220A122F
:100A58008A114E3083160313A500EA30A400A40BB4
:100A6800332DA50B332D000003300A128A154422BA
:100A78000A128A114E3083160313A500EA30A40027
:100A8800A40B442DA50B442D000002300A128A1530
:100A980044220A128A114E3083160313A500EA3045
:100AA800A400A40B552DA50B552D000002300A12E9
:100AB8008A1544220A128A1108300A128A15442219
:100AC8000A128A114E3083160313A500EA30A400D7
:100AD800A40B6C2DA50B6C2D000000300A128A1592
:100AE80044220A128A110C300A128A1544220A1268
:100AF8008A114E3083160313A500EA30A400A40B14
:100B0800832DA50B832D000000300A128A1544227C
:100B18000A128A1108300A128A1544220A128A1106
:100B28004E3083160313A500EA30A400A40B9A2DB7
:100B3800A50B9A2D000000300A128A1544220A12C9
:100B48008A1101300A128A1544220A128A114E307B
:100B580083160313A500EA30A400A40BB12DA50B3E
:100B6800B12D000000300A128A1544220A128A1197
:100B780006300A128A1544220A128A114E30831648
:100B88000313A500EA30A400A40BC82DA50BC82D9B
:100B9800000000300A128A1544220A128A110C3009
:100BA8000A128A1544220800831603136D03FF3ABC
:100BB800043EFB007B088312031381070B114D08C9
:100BC8000319F82D5608031DF82D50080319F42DA4
:100BD8000310851C0314003003180130D400F82DCD
:100BE800003085180130D400560803196B2E0130E7
:100BF800FB007B08DA075A03031D6B2E57080319FD
:100C0800362E58082D3E84000A128A1123270A120C
:100C18008A11FB000130FC00550A142E0310FC0D4C
:100C2800FF3E031D122E7C087B0503191F2E83121D
:100C380003130515222E8312031305110130FB003F
:100C48007B08D50706305502031C2F2ED50101302D
:100C5800FB007B08D80708305802031C6B2ED7010D
:100C6800D8016B2E59085802031C462E0A128A1501
:100C7800B7210A128A11831203134E08FB007B085E
:100C8800CD006B2E5808B83E84000130FB00550A91
:100C98004F2E0310FB0DFF3E031D4D2E7B088317BF
:100CA800000503195B2E8312031305155E2E8312AC
:100CB800031305110130FB007B08D50706305502E8
:100CC800031C6B2ED5010130FB007B08D8070830C8
:100CD8005A020318DA014D08031908005608031DC3
:100CE80008000A128A11792608008312031354088F
:100CF8000319822E0130F3007308CF0754085106F8
:100D08000319992E50305302031C8C2E1D308D2E42
:100D18000B30F8000030F9007808F3007308D307A7
:100D28005408F3007308D1009D2E1430F3007308A3
:100D3800D307A0305302031C080001300310C40C71
:100D4800C30CFF3E031DA22E05304F020318C41525
:100D5800A030D302CF01490803190C2F0130F3004A
:100D68007308CA070C304A02031C08004408F40040
:100D78004308F30006300310F40CF30CFF3E031D88
:100D8800BF2E73080A128A1509220A128A11F50061
:100D98008312031343083F390A128A1509220A12DB
:100DA8008A11F60003300310F60DFF3E031DD72EFF
:100DB8000310760D7504F7007708FA008312031301
:100DC8005208031DF52E7A08F3007308CB0004308F
:100DD8004B02031CF32E0B304B02031CF52EC901EA
:100DE80008007A08F3005208B83E84007308831795
:100DF80080000130F3007308D2074B085202031C2D
:100E08000A2FC9010130F3007308CC00CA01080099
:100E1800383043060B3003194406031D0800C90186
:100E2800C90ACA01D201CC010800FF1B232F831372
:100E38007F1883170008840A0319FF0A080007307F
:100E48008A000408840A820700340134003402341A
:100E580000340434003408340034103400342034AE
:100E680000344034003480340034003401340D340C
:100E78000E3413341534163419341A341C3423340C
:100E88002534263429342A342C3432343434013489
:100E980000340A34003464340034E8340334103441
:100EA80027342A342A342A342A342A342A3438343F
:100EB8002C342A34733475347034653472342A34DB
:100EC80064346134743461346C346F346734673437
:100ED800653472342A34003425343034323475346D
:100EE80020343A34203425343034323475342034C4
:100EF8003A3420342534303432347534003476347E
:100F08006F346C3474346134673465343A34203463
:100F18002534733420342534253400346C34693452
:100F28006734683474343A342034253473342034C4
:100F380025342534003428346E3475346C346C34DC
:100F4800293400342C34003483160313BA00831276
:100F580003134C08031DB22F003008005208FD3E51
:100F680083160313B7003708BB00360884008313C1
:100F780000083B020318C62F3B08B7003608840058
:100F880037088000B930B7003708A0003608840059
:100F98000008B800B9013808A1003908A2003A08C9
:100FA8000A128A1563220A128A1183120313CC01CA
:100FB800520883160313B7003708B000B8300A1276
:100FC8008A15EC220A128A11B830831603133006E8
:100FD800F03003193106031DF32F013008000030EB
:100FE8000800831203134C080319FC2F0130080072
:040FF80000300800BD
:10136E00831203130511D601080083120313CD0156
:10137E00CD0ACE01CE0A080064008001840A04065C
:10138E00031900340406C429F100F0013A30710249
:10139E000318D72930307102031CD729F001F00A47
:1013AE00700C0800831203130C10831603130C1415
:1013BE00831203131008CF391038900090101014B8
:1013CE00080083160313A100A0013A30210203186E
:1013DE00F62930302102031CF629A001A00A200CA8
:1013EE0008000630831603139F00850186018312C1
:1013FE000313850186010B170B1F072A8B17080095
:10140E008B130800F100F201103072020318242A27
:10141E007208133E84000A128A1123270A128A15B3
:10142E007106031D1C2A720808000130F0007008B6
:10143E00F20710307202031C0F2A003008008316C8
:10144E000313A200220884000A128A1123270A120B
:10145E008A152006031D352A220808000130A2072E
:10146E00FF30220784000A128A1123270A128A15D6
:10147E00003A031D292A0030080083160313A30027
:10148E008312031306118316031323080A128A15F7
:10149E0018230A128A158312031386151430831625
:1014AE000313A2007930A100A10B5B2AA20B5B2AC9
:1014BE00831203138611080083160313A60001304E
:1014CE00A1020030031CA203A202210A0319220A60
:1014DE000319080021082007A3002308840083179E
:1014EE000008A40021082607A5002508840024086A
:1014FE0083138000662AF401F501701C8C2A720891
:10150E00F4070318F50A7308F50701300310F20DFE
:10151E00F30DFF3E031D8D2A01300310F10CF00C6C
:10152E00FF3E031D942A70087104031D842A75085A
:10153E00F1007408F000080083160313A401A5013E
:10154E00201CAF2A2208A4070318A50A2308A50702
:10155E0001300310A20DA30DFF3E031DB02A013072
:10156E000310A10CA00CFF3E031DB72A2008210476
:10157E00031DA72A2508A1002408A0000800831631
:10158E000313B2007E30B0003008AA0032080A12EF
:10159E008A15BB250A128A1583160313B1002E086D
:1015AE0084003108831380007E30B0003008AA001A
:1015BE0000300A128A15BB2583160313B1002F08BB
:1015CE008400310883138000080083160313B300D0
:1015DE00FF30B400FF30B5000130B002300A0319FD
:1015EE00132B3508A1003408A0003308840083179C
:1015FE000008B2003208A2000A128A1571250A12DA
:10160E008A15831603132108B5002008B400013093
:10161E00B2003208B307F32A3508B1003408B0001F
:10162E00080083160313A000201C212B8312031322
:10163E000616242B83120313061283160313A01C03
:10164E002C2B8312031386162F2B83120313861251
:10165E0083160313201D372B8312031306173A2B01
:10166E0083120313061383160313A01D422B83123A
:10167E0003138617080083120313861308008316BC
:10168E000313A60126082307840024080318240A3E
:10169E0083120313FF000A128A1119270A128A15E0
:1016AE00003A031908008316031326082307840043
:1016BE0024080318240A83120313FF000A128A1146
:1016CE0019270A128A150A128A153E240A128A1539
:1016DE00013083160313A5002508A607492B831690
:1016EE000313A900A701A801882B01308316031349
:1016FE00A5002508A9070130A7070318A80A00307E
:10170E00A80729088400831300080319A02B2908B1
:10171E0084000008A500A6012508A0002608A10047
:10172E0023080A128A1526220A128A15003A03196C
:10173E007C2B831603132808A4002708A300080097
:10174E0083160313A900A701A801B92B0130831634
:10175E000313A5002508A9070130A7070318A80A37
:10176E000030A80729088400831300080319D12B21
:10177E00290884000008A500A6012508A000260857
:10178E00A10023080A128A1526220A128A15003A87
:10179E00031DAD2B831603132808A4002708A300EE
:1017AE000800780879040319052CFD01FD0AF91BC0
:1017BE00EC2B01300310F80DF90DFF3E031DE12B4C
:1017CE000130FC007C08FD07DE2B79087B02031D2F
:1017DE00F22B78087A02031CFA2B7808FA027908A1
:1017EE00031CFB03FB0201300310F90CF80CFF3E47
:1017FE00031DFB2B0130FD02031DEC2B7B08F900B2
:10180E007A08F80008008316031328082904031920
:10181E00392CAD01AD0AA91B202C01300310A80DE7
:10182E00A90DFF3E031D152C0130AC002C08AD0791
:10183E00122C29082B02031D262C28082A02031C11
:10184E002E2C2808AA022908031CAB03AB02013078
:10185E000310A90CA80CFF3E031D2F2C0130AD0266
:10186E00031D202C2B08A9002A08A80008008316A7
:10187E000313A20083120313061583160313220803
:10188E00A10004300310A10CFF3E031D492C2108BA
:10189E000A128A1518230A128A1583120313861543
:1018AE00313083160313A100A10B5B2C831203139B
:1018BE0086118316031322080F390A128A1518236C
:1018CE000A128A15831203138615313083160313F9
:1018DE00A100A10B702C8312031386110800F501D1
:1018EE00F601700871040319AD2CF701F70AF11B0C
:1018FE008C2C01300310F00DF10DFF3E031D812CD9
:10190E000130F4007408F7077E2C01300310F50D3A
:10191E00F60DFF3E031D8D2C71087302031D992CCD
:10192E0070087202031CA22C7008F2027108031CCC
:10193E00F303F302751401300310F10CF00CFF3EAB
:10194E00031DA32C0130F702031D8C2C7608F10029
:10195E007508F000080083160313A601A7012008DE
:10196E0021040319EB2CA501A50AA11BCA2C0130D9
:10197E000310A00DA10DFF3E031DBF2C0130A400CE
:10198E002408A507BC2C01300310A60DA70DFF3EA1
:10199E00031DCB2C21082302031DD72C2008220265
:1019AE00031CE02C2008A2022108031CA303A3029F
:1019BE00261401300310A10CA00CFF3E031DE12CD8
:1019CE000130A502031DCA2C2708A1002608A0007D
:1019DE0008008316031385140511831203130511D2
:1019EE00831603134608B6004508B500CB30C70072
:1019FE004708B700CA30C8004808B800ED30C90023
:101A0E004908B9000A128A15E9260A128A15003009
:101A1E00831603134C02023003194B02031C1F2DB5
:101A2E00F030C700470881054A08C70047088104FF
:101A3E0081126D03FF3A023E8312031381000B11D4
:101A4E008B160B170B1F2D2D8B1708008B130800F1
:101A5E0083160313A700053027020318080015305C
:101A6E002402031808008030A5002508A6002703CD
:101A7E00031D442D2408FF3E582D02302706031D5A
:101A8E004B2D24083F3E582D03302706031D522DA3
:101A9E002408133E582D04302706031D5B2D240801
:101AAE00533EA5002508A6072608A50004300310FE
:101ABE00A50CFF3E031D5E2D25080A128A15442231
:101ACE000A128A158316031326080F390A128A156D
:101ADE0044220800831603132008A3002308A2063D
:101AEE002208A30003300310A30DFF3E031D7A2D21
:101AFE000310230DA4002408A2062208A300A401AB
:101B0E000310A30DA40D0310A30DA40D0310A30D1C
:101B1E00A40D2208A50004300310A50CFF3E031DE2
:101B2E00932D2508A600A7012108A9002008A800CA
:101B3E002908A800A9012208AA00AB012A08AB00B7
:101B4E00AA0128082A04AC0029082B04AD00260897
:101B5E002C06AE0027082D06AF0023082E06A00087
:101B6E0024082F06A100080083160313AD002D08CC
:101B7E00031DC92D831203135B0883160313AB00D9
:101B8E002B08AD002D08031DCE2D003008002A08AD
:101B9E00AB002B08A3002D080A128A15A7230A12E0
:101BAE008A15831603132308AC002C08AD072D08E5
:101BBE00840083130008031DE92D83120313DB0138
:101BCE0000300800831603132A08AB002B08A3006D
:101BDE002D080A128A1576230A128A158316031304
:101BEE0023082D07AC002C0883120313DB005B08BF
:101BFE008400831300080319102E5B0884008001F3
:101C0E00013083160313AB002B0883120313DB077B
:101C1E00112EDB01831603132D0808000B1D1D2E3C
:101C2E000A128A11D8250A128A156B2E83160313EF
:101C3E000C1C6B2E831203130C1C6B2E0C1001301C
:101C4E00B8003808C80717304802031C6B2EC801AD
:101C5E000130B8003808C7073C304702031C3C2E41
:101C6E00C7010130B8003808C6073C304602031CD5
:101C7E00452EC6010130B8003808C5073C30450274
:101C8E000318C501D430A0000030A1004830B800C0
:101C9E003808A2004508B900BA013908A3003A086D
:101CAE00A4004608BB00BC013B08A5003C08A600EA
:101CBE004708BD00BE013D08A7003E08A8000A1255
:101CCE008A113D220A128A15831203134208FF005D
:101CDE0041088A00400884003F0E8300FE0E7E0EEF
:101CEE00090083160313AD002D08840020308313E2
:101CFE000006031D872E0130A8002808AD077B2E95
:101D0E002D088400093000060319822EAB01AC01A8
:101D1E00AA012D0884002D300006031D9B2E0130D4
:101D2E00A8002808AA07A12E2D0884002B30000633
:101D3E00031DA52E0130A8002808AD072D0884002C
:101D4E0000080A128A15E8210A128A15031CD32EDE
:101D5E00831603132C08A1002B08A0000A30A20042
:101D6E000030A3000A128A15A3220A128A158316BE
:101D7E0003132D088400831300082007A8002108F0
:101D8E000318210AA9002808D03EAB002908031821
:101D9E00013EFF3EAC00A12E831603132A08031941
:101DAE00E42E2B09A8002C09A900A80A0319A90AD8
:101DBE002808A6002908A70008002C08A7002B0851
:101DCE00A600080083160313C4010830440203184A
:101DDE0008004408BA003A07013E84000A128A112C
:101DEE0023270A128A15BB000A128A1123270A1208
:101DFE008A15BC00370884003B0883138000840AD0
:101E0E003C0880003608A3003508A200370884007D
:101E1E000008BA00840A0008BB000310BA0DBB0DFF
:101E2E000310BA0DBB0D3A08A0003B08A1000A1220
:101E3E008A15A3220A128A15831603132008BC00E2
:101E4E002108BD000310BC0DBD0D0310BC0DBD0D52
:101E5E000310BC0DBD0D3C08BE003D08BF00C00107
:101E6E00C1014108A9004008A8003F08A7003E088C
:101E7E00A6000030AD00B730AC001B30AB00003018
:101E8E00AA000A128A1571270A128A1583160313DD
:101E9E002708C3002608C200013043020030031990
:101EAE00420203186C2F4208BA00390884003A081F
:101EBE00831380004408031908004408FF3EBA004B
:101ECE00380884003A08800008000130BA003A0849
:101EDE00C407EC2E83160313B001A91F832FA60986
:101EEE00A709A809A909A60A0319A70A0319A80A86
:101EFE000319A90AB001B00AAD1F942FAA09AB09A4
:101F0E00AC09AD09AA0A0319AB0A0319AC0A0319E5
:101F1E00AD0A0130AE002E08B0060030B40000301D
:101F2E00B3000030B2000030B100290828042704A5
:101F3E0026040319E92FAF01AF0AA91BB42F0130F4
:101F4E00AE000310A60DA70DA80DA90DAE0BA82F60
:101F5E000130AE002E08AF07A42F0130AE000310E3
:101F6E00B10DB20DB30DB40DAE0BB62F29082D0267
:101F7E00031DCB2F28082C02031DCB2F27082B0265
:101F8E00031DCB2F26082A02031CDC2F2608AA02CB
:101F9E002708031C270FAB022808031C280FAC02CE
:101FAE002908031C290FAD02311401300310A90CAE
:101FBE00A80CA70CA60CFF3E031DDD2F0130AF02AF
:101FCE00031DB42F30080319F72FB109B209B30955
:101FDE00B409B10A0319B20A0319B30A0319B40AF0
:101FEE003408A9003308A8003208A7003108A6005B
:021FFE000800D9
:02400E007AFF37
:00000001FF
