:040000008A11112828
:10000800FE00030EF1000408F2000A08F300831250
:1000180003137F08F4008A119A2A8A111328F80119
:1000280083018A1117288A11B1228A118A11C122E3
:100038008A118A11E5208A118A11DC228A11831219
:100048000313A101A10A01308A11E0218A11153098
:100058008A114B228A1183120313A101A10A0230CB
:100068008A11E0218A113E308A114B228A111F30F1
:1000780083120313A7007130A6001D30A500A50B3D
:100088004328A60B4328A70B43284A2883120313A7
:10009800A101A10A03308A11E0218A1125308A11B1
:1000A8004B228A1183120313A101A10A04308A1179
:1000B800E0218A1132308A114B228A111F308312B3
:1000C8000313A7007130A6001D30A500A50B6A28F0
:1000D800A60B6A28A70B6A2871288A11DC228A11C4
:1000E80083120313A101A10A01308A11E0218A11A8
:1000F80001308A114B228A1183120313A80114308C
:1001080028020318A228053083120313A700913090
:10011800A600CF30A500A50B8F28A60B8F28A70B0C
:100128008F288A11D4228A11013083120313A50063
:100138002508A80714302802031C8728A8011430B2
:1001480028020318C228053083120313A700913030
:10015800A600CF30A500A50BAF28A60BAF28A70B8C
:10016800AF288A11CC228A11013083120313A5000B
:100178002508A80714302802031CA7288A11DC22A6
:100188008A1183120313A101A10A02308A11E02106
:100198008A1165308A111F228A1153308A111F2251
:1001A8008A111F3083120313A7007130A6001D3077
:1001B800A500A50BDD28A60BDD28A70BDD28E42864
:1001C80020284E3083120313A200EA30A100A10BAD
:1001D800EB28A20BEB28000003308A1182228A1137
:1001E8004E3083120313A200EA30A100A10BFA28B3
:1001F800A20BFA28000003308A1182228A114E309D
:1002080083120313A200EA30A100A10B0929A20B53
:100218000929000003308A1182228A114E30831284
:100228000313A200EA30A100A10B1829A20B182978
:10023800000002308A1182228A114E308312031381
:10024800A200EA30A100A10B2729A20B2729000050
:1002580002308A1182228A1108308A1182228A1178
:100268004E3083120313A200EA30A100A10B3A29F1
:10027800A20B3A29000000308A1182228A110C3020
:100288008A1182228A114E3083120313A200EA30A7
:10029800A100A10B4D29A20B4D29000000308A11A5
:1002A80082228A1108308A1182228A114E308312E2
:1002B8000313A200EA30A100A10B6029A20B602958
:1002C800000000308A1182228A1101308A118222AC
:1002D8008A114E3083120313A200EA30A100A10B49
:1002E8007329A20B7329000000308A1182228A1117
:1002F80006308A1182228A114E3083120313A2001B
:10030800EA30A100A10B8629A20B86290000003043
:100318008A1182228A110C308A1182220800013047
:100328008A000408840A82070034773477347734E3
:100338002E3465346C3465346334743472346F34F9
:1003480053346F346D3465342E3463346F346D3404
:1003580000344C344334443420344C3469346234EB
:100368007234613472347934203466346F347234C0
:10037800003444346534763465346C346F34703406
:1003880065346434203442347934003465346C3450
:1003980065346334743472346F3453346F346D3469
:1003A800653400344D3450344C34413442342034B4
:1003B800583443343834003483120313A40005300E
:1003C80024020318080015302102031808008030A1
:1003D800A2002208A3002403031DF5292108FF3EDB
:1003E800092A02302406031DFC2921083F3E092A58
:1003F80003302406031D032A2108133E092A04306A
:100408002406031D0C2A2108533EA2002208A30734
:100418002308A20004300310A20CFF3E031D0F2A7C
:1004280022088A1182228A118312031323080F39A2
:100438008A1182220800F700831203130614770832
:10044800F60004300310F60CFF3E031D262A76083A
:100458008A1168228A118312031386143130F60038
:10046800F60B342A372A83120313861077080F39BC
:100478008A1168228A118312031386143130F60018
:10048800F60B442A472A83120313861008008312A6
:100498000313A200A1012108220784008A119321D5
:1004A8008A11003A031908002108220784008A11DA
:1004B80093218A118A111F228A1101308312031392
:1004C800A0002008A1074F2AF500751C6F2A831287
:1004D80003130514722A831203130510F51C762AD8
:1004E8008514772A8510751D7B2A05157C2A051128
:1004F800F51D802A8515080085110800831203134D
:10050800A000061020088A1168228A11831203139A
:1005180086141430F7007930F600F60B912AF70BA1
:10052800912A962A83120313861008008B1A0B1D32
:10053800A62A0B110130F0007008F807B7307802CE
:100548000318F8017408FF0073088A007208840011
:10055800710E8300FE0E7E0E0900831603139B01A5
:100568008601850183120313860185010B170B1F72
:10057800BF2A8B1708008B1308000B118B168316E4
:100588000313811281110108F83906388100080027
:1005980001308A1182228A110C308A1182220800C5
:1005A80001308A1182228A1108308A1182220800B9
:1005B80000308A1182228A1101308A1182220800B1
:04400E004AFFFFFF67
:00000001FF
