:040000008A11112828
:10000800FE00030EF1000408F2000A08F300831250
:1000180003137F08F4008A112F298A111328F70186
:10002800F801AE0183018A111928F501F50AFF309C
:100038008A11FF208A11003083120313A800A90037
:100048008A11CF208A1183120313860183160313A2
:100058008601831203138101831603138111811210
:100068000115011D3B288316031381143E288316AE
:1000780003138110811C4428831603130114472895
:100088008316031301108B178B1F4C288B164D28D2
:100098008B120B118A114B218A1183120313AC01A5
:1000A800AD013D30831203132E06031D5528AE0102
:1000B800023086062C08803EAA002D080318013E4F
:1000C800003EAB00FF302A05AC0003302B05AD0025
:1000D8002D08A9002C08A8008A11CF208A115528BC
:1000E80083120313A501A11F8028A009A109A00A52
:1000F8000319A10AA501A50AA31F8B28A209A30910
:10010800A20A0319A30A0130F5007508A506A6017D
:10011800A701200821040319C228A401A40AA11BCD
:10012800A12801300310A00DA10DFF3E031D962844
:100138000130F5007508A407932801300310A60DB7
:10014800A70DFF3E031DA22821082302031DAE2888
:1001580020082202031CB7282008A2022108031C39
:10016800A303A302261401300310A10CA00CFF3E28
:10017800031DB8280130A402031DA128250803196E
:10018800CA28A609A709A60A0319A70A2708A100C9
:100198002608A000080083120313281CD7288312FE
:1001A80003131716DA288312031317120230A0005C
:1001B8000030A1002908A3002808A2008A11742091
:1001C8008A1183120313201CED2883120313971638
:1001D800F0288312031397120430A0000030A10006
:1001E8002908A3002808A2008A1174208312031387
:1001F800200895000800F60076088316031392007D
:100208001829831212101629831292101214232906
:1002180083121214121C1429831203139214232913
:1002280083120313921023297508013A031905292B
:10023800053A03190829143A03190C2923298312AA
:100248001715171D2B2983120313971508008312FE
:1002580003139711080001308B1E00390B1D00395C
:10026800003803193C290130F0007008AE070B1163
:100278007408FF0073088A0072088400710E8300F6
:10028800FE0E7E0E090083120313910108008312EB
:060298000313121508001B
:04400E006AFFFFFF47
:00000001FF
