:060000000A128A11122809
:10000800FE00030E83120313CA000408CB000A087B
:10001800CC007F08CD000A128A1185290A128A119C
:100028001528831603130A128A110A250A128A113F
:10003800A9000A128A110B250A128A11AA000A12AB
:100048008A110C250A128A11AB000A128A110D2591
:10005800AC0083120313ED01EE01EF0183010A12D4
:100068008A11412A83120313BE002B30B0003008D6
:10007800BD000130AA07FF302A0784000A128A113E
:100088005A230A128A11B0003008BF003F0803192A
:10009800802925303F0603195D283F08B0003E0837
:1000A80084003008831380000130B0003008BE0798
:1000B8003D28B5019728351697283D0884008313F5
:1000C8000008B0003008BC000130B0003008BD079F
:1000D8003C08031D73283730B0003008BC003C08CA
:1000E80084000A128A115A230A128A11003A031943
:1000F8003D283C0884000A128A115A230A128A11E0
:10010800B0003E088400300880000130B00030089C
:10011800BC070130B0003008BE077328C030B000FB
:100128003008B504AF280130AA07FF302A07840039
:100138000A128A115A230A128A11BF00003A0319B7
:1001480080296C3A03195F281F3A03196128063A77
:10015800031992283D28351EC1283D0884008313C1
:100168000008B800840A0008B900840A0008BA0028
:10017800840A0008BB000430D0283D08840083139B
:100188000008B000840A0008B1003008B80031083F
:10019800B900BA01BB010230B0003008BD07BF0189
:1001A800BF0A0A303F06031915293F08B00001307D
:1001B8000310B00DFF3E031DDC280310300D013E77
:1001C80084000A128A115A230A128A11B1000A12EB
:1001D8008A115A230A128A11B2000A128A115A2362
:1001E8000A128A11B3000A128A115A230A128A11B2
:1001F800B40034083B02031D0B2933083A02031DDF
:100208000B2932083902031D0B2931083802031C57
:1002180015290130B0003008BF070A303F06031D1A
:10022800D9283F08B600B701B61BB703FF30B60799
:100238000318B70AFF30B707360A0319370A031934
:100248003D280030A3000030A2000030A1000A3091
:10025800A0003608B00001300310B00DFF3E031DAA
:1002680030290310300D013E84000A128A115A23E6
:100278000A128A11F0000A128A115A230A128A11E4
:10028800F1000A128A115A230A128A11F2000A127C
:100298008A115A230A128A11F3003B08F7003A0818
:1002A800F6003908F5003808F4000A128A11AE225F
:1002B8000A128A11730883120313A7007208A60092
:1002C8007108A5007008A4000A128A110C230A12EA
:1002D8008A11831203132008303EB1003108BF0091
:1002E8003F08B0003E0884003008831380000130C6
:1002F800B0003008BE071A293E0884008313800125
:1003080008008B1A0B1D342A0B110130ED07031856
:10031800EE0A0030EE076F080319A8291E30F00016
:100328000030F10003106D0DF2006E0DF3000A129B
:100338008A116C240A128A1170087104031DA829F5
:1003480010308312031387060030831203136E02E2
:100358003D3003196D02031C342AED01EE01EC0156
:10036800EC0102306C020318282A2930C00040082A
:10037800AA006C08AB3E840083130008C100410842
:10038800AB006C08A93E840000080A128A112E24CA
:100398000A128A11700883120313C2007108C3007D
:1003A800C401C5014508F8004408F7004308F600F1
:1003B8004208F5000030FC000030FB000030FA0075
:1003C8006430F9000A128A11A7230A128A117508E3
:1003D80083120313C6007608C7007708C800780898
:1003E800C9000A300310C90CC80CC70CC60CFF3E64
:1003F800031DF6294908AF004808AE004708AD00BC
:100408004608AC004E300A128A1136200A128A11A8
:100418004E300A128A119E240A128A110A300A12D0
:100428008A1100250A128A110D300A128A11002534
:100438000A128A11013083120313C0004008EC0726
:1004480002306C02031CB9290A300A128A110025ED
:100458000A128A110D300A128A1100250A128A110D
:10046800831203134D08FF004C088A004B088400D0
:100478004A0E8300FE0E7E0E09000A128A11C72456
:100488000A128A110A128A11F5240A128A110A120A
:100498008A11B3240A128A110A128A11D8240A125C
:1004A8008A1183120313071283160313A701A70ADD
:1004B800A60101300A128A11EC230A128A110130AE
:1004C8008316031321025E3003192002031C6E2ACF
:1004D80001306F2A0030A5002508A6002708031957
:1004E8007D2A260803197D2A83120313EF01EF0AD8
:1004F800802A8312EF010712831603132708031DAE
:100508008A2A2608031D8A2AA701A70A0A128A111D
:10051800E7240A128A1183160313A5002508A800E8
:10052800280803195D2A31302806031DA22AA701CD
:10053800A70A83120313EF01EF0A5D2A30308316EE
:1005480003132806031D5D2AA70183120313EF0175
:1005580007125D2A0030FC000030FB000030FA0072
:100568000030F90073087204710470040319032B36
:10057800FD01FD0AF31BCE2A0130F8000310F00D2F
:10058800F10DF20DF30DF80BC22A0130F8007808CE
:10059800FD07BE2A0130F8000310F90DFA0DFB0D16
:1005A800FC0DF80BD02A73087702031DE52A7208A0
:1005B8007602031DE52A71087502031DE52A7008F5
:1005C8007402031CF62A7008F4027108031C710FE8
:1005D800F5027208031C720FF6027308031C730FEE
:1005E800F702791401300310F30CF20CF10CF00C43
:1005F800FF3E031DF72A0130FD02031DCE2A7C08A9
:10060800F3007B08F2007A08F1007908F00008008E
:100618008312031323082204210420040319512BF5
:10062800A901A90AA31B262B0130A8000310A00DBD
:10063800A10DA20DA30DA80B1A2B0130A8002808A4
:10064800A907162B23082702031D342B220826028C
:10065800031D342B21082502031D342B20082402F6
:10066800031C442B2008A4022108031C210FA50207
:100678002208031C220FA6022308031C230FA7022B
:1006880001300310A30CA20CA10CA00CFF3E031D0B
:10069800452B0130A902031D262B2708A300260895
:1006A800A2002508A1002408A000080003308A0041
:1006B8000408840A8207003401340034003400340A
:1006C8000A34003400340034643400340034003414
:1006D800E834033400340034103427340034003450
:1006E800A034863401340034403442340F340034AA
:1006F80080349634983400340034E134F5340534C9
:100708000034CA349A343B34253473343A342034B0
:1007180025346C34753420342F342034313430345B
:100728003034003428346E3475346C346C342934E5
:1007380000344C34693467346834743400344734D2
:10074800613473340034003083120313A300003083
:10075800A2000030A1000030A000751CC92B790848
:1007680083120313A0077A0803110318013E031D1F
:10077800A1077B0803110318013E031DA2077C088B
:1007880003110318013E031DA3070130FD000310E8
:10079800F90DFA0DFB0DFC0DFD0BCB2B01300310F1
:1007A800F80CF70CF60CF50CFF3E031DD32B78085C
:1007B800770476047504031DB12B831203132308F1
:1007C800F8002208F7002108F6002008F5000800C4
:1007D80083160313A40002302402031CF82B85108F
:1007E8000510A001A10108002408A200A20DA20D75
:1007F800A20D831203131F08831603132206C73999
:100808002206831203139F000D2C0514172C851440
:10081800172C831603132408003A0319092C013AEC
:1008280003190B2C172C063083160313A3002F3043
:10083800A200A20B1D2CA30B1D2C222C8312031328
:100848001F151F19252C1E0883160313A1001E0847
:10085800A0000800F40002307402031C3A2C83162E
:10086800031385100510F001F10108007408F20067
:10087800F20DF20DF20D831203131F087206C73929
:1008880072069F004F2C831603130514572C8316EA
:1008980003138514572C7408003A0319472C013A9E
:1008A80003194B2C572C0630F3003030F200F20BB2
:1008B8005B2CF30B5B2C0000831203131F151F190D
:1008C800632C1E08F100831603131E08F0000800AD
:1008D800700871040319992CF501F50AF11B802C95
:1008E80001300310F00DF10DFF3E031D752C013092
:1008F800F4007408F507722C71087302031D862C26
:1009080070087202031C8E2C7008F2027108031C16
:10091800F303F30201300310F10CF00CFF3E031D4A
:100928008F2C0130F502031D802C7308F10072082A
:10093800F0000800F200720884008313000803190D
:10094800080072088400831300080A128A1100251F
:100958000A128A110130F1007108F2079F2C8316E0
:1009680003138717071318153330990018128312C9
:100978000313981783160313181398168312031377
:1009880018131816080083160313870186018501BA
:10099800831203138701860185010B170B1FD62CC1
:1009A8008B1708008B130800831203139F171F135C
:1009B800831603139F111F159F101F109F17831273
:1009C80003131F140800831203138C1AED2C003034
:1009D8000800981CF32C18121816003008001A0882
:1009E80008000B118B16831603138112811101085D
:1009F800F839063881000800F00083160313981CA4
:100A0800012D700883120313990008000034013483
:040A18003E344434F0
:02400E007AFF37
:00000001FF
